:02000002D0002C
:1040000000400D0040AD0D00000006000C00050151
:084010000401BD0B00000000DB
:04401800848F0D0084
:10401C0009480A49884208B505D0094A824202D0AB
:10402C00121A04F0C5FE0748074A0021121A04F0C0
:10403C00CDFE014808BD00BF60E40320A4AC0D0018
:10404C00D4E40320D4E40320F0E7032070B5074E3A
:10405C00074C03F08FFEA41BA4080025A54200D139
:10406C0070BD56F8043B98470135F7E770AC0D006E
:10407C0094AC0D0000F0BEBD08B500F0ADFEBDE87F
:10408C00084003F039BE03F01FBB03F01DBB03F067
:10409C0023BB03F021BB000008B5034A00210C2010
:1040AC0003F05EFAFEE700BF3D720D000078B0FA37
:1040BC0080F04009704701230370704770477047C8
:1040CC0010B51021044604F046FD204610BD37B54E
:1040DC0004460846019104F0AFFE6368A268451CD3
:1040EC00E818904208D8206801992A46184404F030
:1040FC005FFE60682844606003B030BD38B58469E9
:10410C000A4B036005467CB16368013B63605BB995
:10411C00236820469B689847A368013BA3601BB9A2
:10412C0023682046DB689847284638BDBCA90D009B
:10413C000EB403B503AB002153F8042B019303F029
:10414C0032FD02B05DF804EB03B0704773B5044662
:10415C0008462279A36832B1A3B90B4902B0BDE875
:10416C00704003F0E5BC094A267B094D0949647B84
:10417C00012E18BF2946CDE900140749FFF7D8FFD7
:10418C0002B070BD054AEFE7A98F0D00E78F0D0057
:10419C00A58F0D00A18F0D00BF8F0D00988F0D0006
:1041AC000EB403B503AB012153F8042B019303F0B8
:1041BC00FAFC02B05DF804EB03B0704708B503F0ED
:1041CC003FF8034B1860BDE8084003F065BA00BF28
:1041DC00D4E7032003682BB14268934202D21846FD
:1041EC0004F0D0BD0020704738B50568044645B1D1
:1041FC0043689D4205D2284604F01EFE013005445A
:10420C002560204638BDF7B5D1E900361E44CDE90E
:10421C000036044615466F46009BB3420CD235B9A6
:10422C0097E8030084E80300204603B0F0BD38464D
:10423C00FFF7DAFF013DEFE70023C4E90033F3E7B2
:10424C0038B504460B46D0E901012568044A091A21
:10425C00284403F051FA636801300344636038BDAD
:10426C00DC8F0D0038B504460B46D0E901012568FA
:10427C00044A091A284403F03FFA636801300344E6
:10428C00636038BDDF8F0D0073B5002268460D46A4
:10429C00FFF7B9FF6846FFF79DFF01222946044648
:1042AC006846FFF7B0FF6846FFF794FF054603F03A
:1042BC0089FE194903F03CFC03F084FE002C0646F1
:1042CC0025DA2D2103F038FC61420A22304603F036
:1042DC004CFC03F077FE114903F02AFC03F072FE4C
:1042EC00002D064615DA2D2103F026FC69420A2220
:1042FC00304603F03AFC304603F021FC084B1B78A7
:10430C001BB1084B1D60084B1C6002B070BD2146F0
:10431C00DBE72946EBE700BFE38F0D00E88F0D00CC
:10432C0068E5032048E6032044E6032008B5002393
:10433C004377006804F048F9BDE8084002F09CBAE5
:10434C002DE9F0438F188FB0B942CDE90517064619
:10435C008946904680F0C28005A80D88FFF744FF7F
:10436C0003689F4240F2BA8005980378412B49D1EB
:10437C00013004F007FD052837DDFF2447F27623D2
:10438C009D4200F0D38041D847F261239D4200F05A
:10439C00A88047F264239D426BD046F670539D4231
:1043AC0041D1784D784EDFF8F4810598874240F280
:1043BC0095800378412B4BD1013004F0E3FC0528A8
:1043CC0039DDFF2405A8FFF70FFFDDF8149029460F
:1043DC00484604F027FD014600283DD1204604F054
:1043EC00FBFA05A8FFF700FFDFE70598013004F0A2
:1043FC00C9FC0028C1DB0598013004F0C3FC0E3069
:10440C00C4B2BBE705A8FFF7E5FEF9E747F2647312
:10441C009D424FD047F276739D4200F0978047F251
:10442C0061739D426FD00023CDE9013302220092CB
:10443C00728B19463AE00598013004F0A3FC002871
:10444C00BFDB0598013004F09DFC0E30C4B2B9E717
:10445C0005A8FFF7BFFEF9E73146484604F0E2FC39
:10446C0028B14146484604F0DDFC0028B9D10121B1
:10447C00B4E70AAB4549079307A810230025CDE9FB
:10448C000853FFF724FE07A82146FFF7D9FE204664
:10449C0004F0CCFA014607A8FFF7E4FE089BCDE92F
:1044AC000155013B0093079B2A461421304600F02E
:1044BC0097FA13E005A8FFF797FE03689F420DD902
:1044CC00A4B20121204604F087FA05A8FFF782FE6A
:1044DC00011E18BF0121204604F08FFA0FB0BDE871
:1044EC00F0830AAB079307A8102329490025CDE9CF
:1044FC000853FFF7ECFD07A82146FFF7A1FE204665
:10450C0004F0A7FAC6E705A8FFF76EFE03689F4202
:10451C00E4D9A4B20121204604F05EFA05A8FFF705
:10452C0059FE0146204604F0ABFAD7E720468DF839
:10453C00284002F0A3F903460AA823B1154A934276
:10454C0001D09847CAE702F095F9C7E705A8FFF72D
:10455C004BFE059B8DF81C40A3EB0901A8EB010158
:10456C002046CDE90A310C9102F092F903460AA9D2
:10457C0007A823B1084A934201D09847AEE702F04E
:10458C007AF9ABE7EF8F0D00F28F0D00FA8F0D006B
:10459C00FD8F0D0081680D0083680D00F68F0D00F6
:1045AC002DE9F0418CB004AF044605220068391D9A
:1045BC0003F03FFBB8B3052804D000202037BD46DC
:1045CC00BDE8F081B7F80520130A43EA0223B7F8D7
:1045DC000720A7F8053099B2130A43EA02231FFA01
:1045EC0083F8A7F807300029E7D03B7923BB02F00A
:1045FC003FF90246E060607FB7F80730C0B9B7F802
:10460C000510012914D1092B0FD0C82B01D0042B74
:10461C00D4D1012562612046657700F08FFAFFF74F
:10462C00CDFD02F029F90120C8E703236377C5E724
:10463C00581F18BF0120C1E7B8F5806F03D9204679
:10464C00FFF774FEEFE708F1080323F007036E464B
:10465C00ADEB030D04AD20684246294603F0E9FAA0
:10466C0080454FF000007FD1B7F80730E85402F0D6
:10467C00FFF83B79E060142B00F0A68048D80F2B94
:10468C0000F0A28007D8022B48D0062B51D0204630
:10469C00FFF74CFE58E0112BF9D100233B70B7F813
:1046AC0007302B449D42C7E903534DD207F10C0050
:1046BC00D5F80080FFF798FDFB68B7F807105D1B75
:1046CC004D1BC7E905357B68FD61C3F30F2363837D
:1046DC00644B984500F0BF8000F28C80A3F57F23DB
:1046EC006FF400721344984500F09D8079D8A3F5BF
:1046FC000033063B984500F09C8003F500330333F0
:10470C0098456BD107F11401384602F0B4F865E016
:10471C00292B1BD0372B17D01D2BB8D1637F43B956
:10472C0001236377204600F009FAFFF747FD02F0FA
:10473C00A3F80023C821B7F805200091CDE9013377
:10474C001946204600F04CF901200DE0A3681BB976
:10475C00402002F0B9FFA060B7F80780A844454597
:10476C00C7E9055802D30020B54627E72946402261
:10477C00A06804F069FBA368002583F83F5007F19B
:10478C001400FFF731FD036843451BD2786920B153
:10479C00BB69984214D204F0F9FA85B2206803F090
:1047AC0013FF2368A2685A631D870023637702F006
:1047BC005FF8A0F59C500838C4E903006061C3E7BA
:1047CC002846EAE75025E9E77B68B7F80720C3F3EA
:1047DC000F23638329462046FFF7B2FD0023638332
:1047EC00B2E7214B9845F9D107F11401384602F094
:1047FC0042F8F3E71D4B984521D003F19F6303F575
:10480C00003303F5807398451FD003F16E4303F515
:10481C00302303F586739845E0D107F1140138462F
:10482C0002F029F8DAE707F11401384602F023F810
:10483C00D4E707F11401384602F01DF8CEE707F172
:10484C001401384602F017F8C8E707F1140138468E
:10485C0002F011F8C2E707F11401384602F00BF828
:10486C00BCE700BF766673006462670061636F6EBD
:10487C002DE9F04104468CB00D46FFF79FFC637F99
:10488C00022B00F0A880237F628B0133DBB22377ED
:10489C000AB1012516E0022BFBD8206803F0B3FC0B
:1048AC00B8B125B9206803F035FE002811DD20468B
:1048BC00FFF776FE05460028F4D1206803F084FE4D
:1048CC0001F0DAFF237F013B237728460CB0BDE8CB
:1048DC00F08101F0CDFF0646206803F094FC677F61
:1048EC00012F054629D120B966612046FFF71EFD30
:1048FC00E8E7E3684FF21862F31A934204D92046B2
:10490C00FFF714FD0025DDE74AF6C872934203D881
:10491C002369F31A9342BCD9636941F27072F31A9A
:10492C009342B6D90023CDE9013300931A460621F0
:10493C00204600F055F86661ABE7002FA9D16269FB
:10494C00B21A40B141F270739A42A2D9206803F0B6
:10495C003BFE6777D6E741F288339A4299D92068B3
:10496C0003F032FED4F800C0DCF834E0BCF8388038
:10497C00BEF1000F0BD02B4642467146604603F049
:10498C0081FE431E5D425D418DB966619AE7134B12
:10499C0006930CF120070FCF07AD0FC53B682B70AA
:1049AC004246734606A9604603F039FDE9E76368A1
:1049BC00059301261846268304F03EFA0022CDE921
:1049CC000122059B009032461D21204600F008F87C
:1049DC002369636176E7002577E700BFECA80D003B
:1049EC002DE9F04F83B000AF044600683D6B88465C
:1049FC0016469946EB4603F006FC00287FD0B8F12A
:104A0C001D0F04D84C4B23FA08F3DB0702D4637F49
:104A1C00012B74D146B9668B36B9238B01339BB20B
:104A2C00002B71D02383268BA8F10C03082B16D8EE
:104A3C00D4E90323934238BF134603F1420A01F031
:104A4C0017FFAAEB0000002860DB00212046FFF7CF
:104A5C000FFF01F00DFFAAEB00000028F5DAB9F109
:104A6C00000F5AD06B1D7A6B002ABA6B08BF00225C
:104A7C0003EB020A0AF1070323F00703ADEB030D66
:104A8C00BB6BC7F804D0EA18C2F3072376BA43EA23
:104A9C0002238DF80080ADF80160ADF80330B9F158
:104AAC00000F3CD0002D3AD02A4649460DF10500A6
:104ABC0004F07EF9681D7B6B3BB1BB6B2BB11A46C6
:104ACC007B68796B184404F073F9002555452AD29C
:104ADC00AAEB05027B682068B2F5806F28BF4FF403
:104AEC008062591903F079FB0646002001F0BEFEE6
:104AFC00BEB9206803F068FD667701F0BDFE0C3787
:104B0C00DD46BD46BDE8F08F01238BE7217F0029F0
:104B1C00A5D12046FFF7ACFEA1E70523A3E70520AE
:104B2C00C9E73544D2E703D02046FFF7FFFBE6E7A1
:104B3C0001F09EFE2061E2E74500002000B595B033
:104B4C0004AB00220193492300930292034B1121E1
:104B5C00FFF746FF15B05DF804FB00BF90910D0008
:104B6C002DE9F04115468CB00446043540F6B830BA
:104B7C000F46984601F07AFE0FCD01AE0FC62B689A
:104B8C003370676001F074FEA0F59C50083801AFDB
:104B9C00C4E9030060610FCF07AE0FC63B683370EA
:104BAC0007AF0FCF25684FF0000CC5F834C0A5F83F
:104BBC00388020350FC533682B70664644F24F673A
:104BCC00206803F001FD667701F052FE0546637F15
:104BDC00012B0CD001F04CFE401BB84204D8002134
:104BEC002046FFF745FEF2E7637F012BE8D10CB0BE
:104BFC00BDE8F08110B58CB003F0E4F94FF4165118
:104C0C0003F0D4F9012106202A4C03F0E5FE012122
:104C1C00072003F0E1FE0121122003F0DDFE204607
:104C2C0000F07CFF204601F0ABF9204601F04EFC71
:104C3C00A2230093AC22EA23A72106A803F04AF989
:104C4C0042F2823306AA1C491C48FFF789FF06A8CA
:104C5C0001F036FD102106A801F03FFD06A9184809
:104C6C0001F0A8FD059003F0ADF9059A1549FFF781
:104C7C0097FA204601F084F92046012100F0FFFE4E
:104C8C0000224FF00113C4E9042301211E23CDE9B6
:104C9C00013164230C21009320460B4B00F0ACFC3B
:104CAC00204601F013FC41F2883002F0EBFF0CB00F
:104CBC0010BD00BFCCE5032000900D00E4E4032000
:104CCC0040E5032021900D009B970D0030B5314D30
:104CDC0085B02846002403F0C1FC05F11C0003F04C
:104CEC00B5F82D4A6C632C872C49284603F02EFF0F
:104CFC002B4B2146C3E90054C3E90244C3E90444E5
:104D0C009C619C83012002F04BFC264B26490094AD
:104D1C0040F25B722548264C264D01F007FE1E4AD8
:104D2C002549224803F012FF0721244800F0C8FE51
:104D3C00194A2349214803F009FF0821204601F0B4
:104D4C00D5FC204B23602978BFF35B8F11F0010158
:104D5C000BD128460391FFF7A9F9039928B11A48FA
:104D6C0002F02EFD2846FFF7A6F9174BE36005234A
:104D7C00164A236100232375A2612377064A144B3C
:104D8C0014490B4823620123A38405B0BDE83040CD
:104D9C0003F0DCBE04E50320D4E4032009410D003C
:104DAC00E4E40320CB400D0031900D006CE50320B2
:104DBC0040E50320D8E403202D710D00CCE5032041
:104DCC00995A0D004CA40D00DCE403207C910D00DD
:104DDC00809698000D660D002DE9F04F874889B03C
:104DEC0001F0ADFE002841D0844802F080F800218B
:104DFC008348844D844CFFF73BFD834800F0B7FE9D
:104E0C00AA462B78002B3CD1804C7F4D2378002B6D
:104E1C007FD07D4800F0ABFE7B4801F0B1F87A48BA
:104E2C00012100F02CFE00264FF00113C5E90463AC
:104E3C007749754802F08FFE7649734802F08BFE75
:104E4C00714801F043FB704800F0AAFE10B1724BA0
:104E5C0026701E70284600F0ADFE0028D6D06E4B92
:104E6C0001221A70694A00231370CFE704A802F0DC
:104E7C001BFC0499614801F053FF04A802F099FD52
:104E8C00B5E7614800F073FE5F4801F079F85E48C1
:104E9C00012100F0F4FD00264FF00113C4E9046376
:104EAC005E49594802F057FE5D49574802F053FEDF
:104EBC005C49554802F04FFE5B49534802F04BFEEB
:104ECC00514801F003FB504800F06AFE28B1574AE4
:104EDC002E70012313604D4A1370204600F06AFEB9
:104EEC0040B1524B02221A60484B01221A70002327
:104EFC008AF80030204600F067FE002881D04B4B2A
:104F0C0003221A60414B01221A7000238AF80030E8
:104F1C0077E7414BDFF834811B788BBB444D454C14
:104F2C0002F08EF92B68C01A63281DD902F088F99B
:104F3C0004A92860404801F007FC00283DD003F08C
:104F4C0041F8BDF914300093BDF91020BDF91230B1
:104F5C003A49FFF725F9BDF910302360BDF912303D
:104F6C0003F59673C8F80030D8F8002023684FF486
:104F7C00FA6192FBF1F293FBF1F3C8F80020236085
:104F8C00D8F800302E4D2F4C002B1CDD1E4F002668
:104F9C00D8F80030B34216D92A68B4F90010013A97
:104FAC0012B2384601F058FA28B92B68002BC4BF4E
:104FBC0003F1FF332B600136EAE703F003F82249D3
:104FCC0002F0C9FDD0E71B4B1A68002A99463FDD59
:104FDC000D4F0026D9F80030B34239D92168B5F904
:104FEC000020013109B2384601F036FA20B92368A5
:104FFC007B2B1CBF013323600136EBE76CE50320F0
:10500C00E4E4032060E40320CCE503204CE6032019
:10501C0091900D00B8900D0068E5032040900D00B4
:10502C0056900D0069900D007E900D0040E6032017
:10503C003CE6032044E6032040E50320DB900D0012
:10504C0068E4032064E40320E4900D0048E60320A8
:10505C00D8F80030002B14DA8F4F00262A68B4F9E8
:10506C000010013212B2384601F0F6F920B92B6863
:10507C001F2B1CBF01332B60D8F80030013EB3420C
:10508C00ECDBD9F80030002B15DA834F00262168B1
:10509C00B5F90020013909B2384601F0DDF928B91B
:1050AC002368002BC4BF03F1FF332360D9F8003011
:1050BC00013EB342EBDB784E784F304600F060FF98
:1050CC000121304600F0DBFC4FF001137361B5F9A0
:1050DC000020B4F900100123304600F0EFFD3B68CE
:1050EC00012B0AD1202002934923CDE90030002264
:1050FC006B4B1921304600F07FFA3B68022B0BD129
:10510C0020230121CDE90131482300936248654BEE
:10511C000022192100F070FA3B68032B0BD12023DD
:10512C000122CDE90132702300935B485E4B0022D3
:10513C000A2100F061FA584801F0C8F9C82002F0C1
:10514C00A1FD23687B2B40F0A480534800F018FF8E
:10515C00514801214FF0000B00F091FC4FF001136E
:10516C00C6E904B301262023CDE9013664235A464F
:10517C000C21494800934D4B00F03EFA464801F093
:10518C00A5F9FF21062003F07BFC5946072003F00C
:10519C0077FC5946122003F073FC4FF42F7002F089
:1051AC0071FD5946062003F06BFCFF21072003F02C
:1051BC0067FC4FF42F7002F065FD5946072003F091
:1051CC005FFCFF21122003F05BFC4FF42F7002F008
:1051DC0059FDFF21062003F053FC1421072003F096
:1051EC004FFC5946122003F04BFC4FF42F7002F089
:1051FC0049FD9621072003F043FC4FF42F7002F079
:10520C0041FD5946072003F03BFCFF21122003F01F
:10521C0037FC4FF42F7002F035FD5946062003F091
:10522C002FFCFF21072003F02BFC4FF42F7002F012
:10523C0029FD5946062003F023FC5946072003F0AC
:10524C001FFC5946122003F01BFC194B8AF8006016
:10525C0083F800B00A2323602B603B68C9F800B0C8
:10526C00B342C8F800B004D1124A1349134801F0F4
:10527C00E2FD3B68022B04D1114A0F490F4801F0A3
:10528C00DAFD3B68032B04D10E4A0B490B4801F0A5
:10529C00D2FD09B0BDE8F08FCCE5032040E6032039
:1052AC00DB910D001B930D003B940D00FB950D0045
:1052BC004CE60320EE900D0017910D006CE50320D9
:1052CC0020910D004B910D002DE9F04F85B01F463C
:1052DC00BDF93880BDF83C30A8EB0209A7EB010AF8
:1052EC00B9F1000FB8BFC9F10009BAF1000FB8BF8E
:1052FC00CAF1000AD14583460C46154604DD3A46F0
:10530C002C4647460D469046BC4205DD2A4645468E
:10531C00904622463C4617463E1BB2B20092A8EB82
:10532C000502002AB8BF52420192C6F3C03202FAFB
:10533C0086F64545B4BF01224FF0FF32761002923B
:10534C00BC421CDCDBF800200393D145D2F818805A
:10535C00C7BF294622462A4621465846C047019ACD
:10536C00039BB61AB1B236B2002E05DA029A154476
:10537C00009A56182DB236B2013424B2E0E705B0CB
:10538C00BDE8F08F704710B404682469A4465DF83A
:10539C00044B604730B40468BDF808500295A46B08
:1053AC00A44630BC604730B40468BDF80850029580
:1053BC00E46BA44630BC604770B4BDF90C50BDF82A
:1053CC0010600468CDE90356246CA44670BC604799
:1053DC002DE9F3411C460368BDF820805B69054646
:1053EC001646013C34440F4624B298472B68CDF83E
:1053FC00048000949C6A28463B4632463946A047B6
:10540C002B68DB6A284602B0BDE8F04118472DE94D
:10541C00F3411D460368BDF820805B6904461746BE
:10542C000E469847CDE9007822686B1E3344956A86
:10543C0020461BB23A463146A8472368DB6A204611
:10544C0002B0BDE8F04118472DE9F3471E4603684A
:10545C00BDF928905B69BDF82C800C4605461746B3
:10546C0098472644B4422B680BDACDF80080D3F869
:10547C0020A021464B463A4628460134D04724B258
:10548C00F0E7DB6A284602B0BDE8F047184713B5D1
:10549C0002680191B0F90E100091146CB0F90C3047
:1054AC0000221146A04702B010BD2DE9F3471D465E
:1054BC000368BDF82C805B69BDF9289004460F4643
:1054CC00164698472368CDF80080D3F824A03246BE
:1054DC002B4639462046D0472368CDF8008009F189
:1054EC00FF323244D3F824A039462B46204612B260
:1054FC00D0472368CDF80080D3F820A032464B4625
:10550C0039462046D0476B1ED9192368CDF8008048
:10551C001D6A20464B46324609B2A8472368DB6A0F
:10552C00204602B0BDE8F047184770472DE9F74315
:10553C0099421646BDF92870BDF82C900268804639
:10554C000D461C4613D1BE42C8BF3346CDF8289039
:10555C00C4BF3E461F467B1C946B9B1B1BB2324642
:10556C0029464046A44603B0BDE8F0436047BE421E
:10557C000AD19942C2BF0B4625461C46631CCDF886
:10558C002890D46B5B1BE9E753699847CDE9007908
:10559C00D8F8003040469F6A324623462946B84721
:1055AC00D8F80030DB6A404603B0BDE8F04318473A
:1055BC0001F00303B0F90A208376C907B0F908306B
:1055CC0059BF8381C2818281C381704730B54281CA
:1055DC00C281074A074D0181002481814FF0FF31C0
:1055EC00C0E905124460056004610477046230BDB3
:1055FC0001010001449E0D002DE9F04F89B0CDE969
:10560C0002120268BDF948800493BDF94C3052690E
:10561C000593BDF850A00446904718F107024FF0CF
:10562C00000648BF08F10E024FEAE20B0196354620
:10563C00039B019ABDF904109A18059B8B4212B278
:10564C0027DD049B33444FF0000906930FFA89F0D1
:10565C0080451FFA89F117DD4F0705BF069BC01067
:10566C006D001D5C18BFEDB22B060AD5029B20689D
:10567C0007921944836909B21F4620465346B8471E
:10568C00079A09F10109E1E7019B013301935E449B
:10569C00CEE72368DB6A204609B0BDE8F04F184717
:1056AC002DE9F04F2DED028B91B01646026ABDF834
:1056BC0074809DF878509DF87C4003911F46BDF88E
:1056CC00703004938346002A40F0C580B0F90C304A
:1056DC008B4240F34C81B0F90E30B34240F347811A
:1056EC00062313FB0513002B40F3418106EBC40387
:1056FC00002B40F33C81037F1BB9AF2F84BF0137D4
:10570C00FFB2DBF8003058465B69984705220992D6
:10571C0000220592984A07EB8703D3180C93B3B277
:10572C000693059A0C9B9B5C0793ABB20B93BDF84D
:10573C000C300893039B02FB05F919FA83F90FFA55
:10574C0089F308EE103A08230A93039B02EB030A31
:10575C004FF000090FFA8AFA079ADBF80030D207EB
:10576C0052D5012D1FFA89F23ED1012C3CD19B69F7
:10577C0006991F46049B0A4412B251465846B84734
:10578C0009F101034FFA83F9079B5B0807930A9B06
:10579C00013B13F0FF030A93DED1059F01377BB267
:1057AC000593099B013B13F0FF030993B9D1049BAB
:1057BC0043450FD0012DDBF800303BD1012C39D102
:1057CC000899CDF8008005311C6A3246082309B2CD
:1057DC005846A047DBF80030DB6A584611B0BDECE8
:1057EC00028BBDE8F04F1847069914FB02F20A44ED
:1057FC00049901910094DB6918EE101A1F4612B23D
:10580C002B465846B847BBE7049A4245B8D0012D01
:10581C001FFA89F207D1012C05D19B6906991F4605
:10582C000A444346A8E70699CDF8048014FB02F21B
:10583C000A44DFE70B9ACDF8048002EB8201089A48
:10584C00E4000A4411460094DC6932462B4609B246
:10585C005846A047BEE7137A516812680D92FF1A9A
:10586C00FFB201EBC70331F8372006929A78099200
:10587C00DA780B92012D93F9052093F906A00A9280
:10588C0001D8012C57D9BDF9283008930FFA8AF3A7
:10589C000793DBF8003058465B699847B3B24FF07A
:1058AC0000080E931AFA86F3C14647460F930B9BDA
:1058BC009F428FD2079B0E9A3B4403FB042300228A
:1058CC0005920F9A1BB202EB070A08EE103A0FFA78
:1058DC008AFA4346099A0599914241D25A1CD2B28E
:1058EC005B070C9207D1069B06990D9A01339BB26C
:1058FC0012F80190069319F0800F12D0012DDBF8ED
:10590C000030BDF80C101AD1012C18D10A9A9B69E1
:10591C001144059A11441E465246049B09B258463E
:10592C00B047059E0136F3B24FEA490905935FFA79
:10593C0089F90C9BCEE70023CDE90733A9E705983D
:10594C00089A024402FB0511049ACDE90042DB6976
:10595C0018EE102A1E4609B22B465846B047E0E70F
:10596C00099B013798445FFA88F8FFB29FE711B0A2
:10597C00BDEC028BBDE8F08F3B990D00F0B5026ACF
:10598C0085B004460B46002A34D10A2908D1438A33
:10599C000282427E03EBC2036382012005B0F0BD9C
:1059AC000D29FAD0E17E007E657E71B1B4F91060EC
:1059BC00062111FB0061B4F90C60B142C1BFB4F90E
:1059CC001210228201EBC5026282E28A0192A28A43
:1059DC000092CDE90205B4F91220B4F9101020465A
:1059EC00FFF75EFE237E228A03EB430302EB4303A5
:1059FC002382D2E70A2907D100230382937A417EBE
:105A0C00428A01FB0323C7E70D29C6D0157AA942A8
:105A1C00C3D3517A9942C0D351685D1BEDB201EBEF
:105A2C00C505AF782FB3E97819B3E17E007E667EA9
:105A3C0091B195F905103944B4F9107000FB01715E
:105A4C00B4F90C70B94207DD00272782B4F91210A3
:105A5C00927A02FB06126282E28A0192A28A009278
:105A6C00CDE90206B4F91220B4F910102046FFF764
:105A7C0017FE2979237E228A01FB0323B8E701292B
:105A8C0038BF0121017641767047000010B5064BF6
:105A9C0003600446006D08B101F0E2FB204600F003
:105AAC00F7F8204610BD00BF9C9E0D0010B50446B3
:105ABC00FFF7ECFF2046702103F04DF8204610BD97
:105ACC0030B585B004460D4603F018F8104A11495C
:105ADC00CDE901214FF0FF32802103460092204690
:105AEC00202200F05BF90C4B23600023C4E9143531
:105AFC0004F1580000F072F804F1600000F06EF848
:105B0C0004F1680000F06AF8204605B030BD00BF13
:105B1C00801A0600A08601009C9E0D0013B5044659
:105B2C00503001F095FB636DD90705D50222042195
:105B3C0004F1580000F066F8636D9A0705D5002251
:105B4C00032104F1600000F05DF8636D5B0705D57F
:105B5C000222114604F1680000F054F8012300936E
:105B6C003C220221204600F019FA02B010BD10B5FB
:105B7C00436DD907044602D5583000F050F8636DD8
:105B8C009A0703D504F1600000F049F8636D5B07D8
:105B9C0005D504F16800BDE8104000F040B810BD18
:105BAC00436D024613F0010003D002F1580000F0DF
:105BBC0066B87047436D024613F0020003D002F141
:105BCC00600000F05CB87047436D024613F00400AF
:105BDC0003D002F1680000F052B8704700210A228D
:105BEC00C0E900127047002310B50446C1718371DF
:105BFC0088B202F01BFF08B10323A37101F020FB54
:105C0C00206010BD38B50C4605461146A0B202F016
:105C1C00E3FE21462846BDE83840FFF7E4BF38B51F
:105C2C000446C07902F002FFA579003825F008037C
:105C3C0018BF0120C5F340058542A3710AD001F0BD
:105C4C00FFFAA379206083F00203A371A079C0F35B
:105C5C00C00038BD01F0F4FA2368C01AA38898423A
:105C6C00F4D3A37903F00103AB42EFD001F0E8FACF
:105C7C00A379206083F0010343F00803E5E7807902
:105C8C0000F00900A0F10803584258417047000089
:105C9C0010B5044B03600446C06A08B101F01CFD4A
:105CAC00204610BD94A30D0010B50446FFF7F0FF7D
:105CBC002046502102F04FFF204610BD002910B5A0
:105CCC004BDBB0F90C408C4247DD002A45DBB0F9C8
:105CDC000E40944241DD847E022C1FD0032C26D032
:105CEC00012C04D10489D24314440A4621B2012B5D
:105CFC0023D0022B32D083BB002A13460489C06AFE
:105D0C00B8BFD31DDB1013FB041102F007020123F3
:105D1C009340425C22EA030242541EE00489C943C8
:105D2C0021444489D243224409B212B2DFE74489A8
:105D3C00C9430C44114622B2D9E7002A0489134600
:105D4C00B8BFD31DDB1013FB0411C36A02F00700AC
:105D5C0001228240585C02435A5410BD002A13465B
:105D6C000489C06AB8BFD31DDB1013FB041102F009
:105D7C000702012303FA02F2435C5A40CCE710B548
:105D8C00044690F93600012180B202F036FE606ABA
:105D9C0018B1BDE8104001F041BD10BD70B504460E
:105DAC001D460026FFF712FC114B2360666215B9E5
:105DBC0002F0A4FE0546FF2384F8333084F8363015
:105DCC009DF9103084F837300A4BA363012384F813
:105DDC003C30059BA3644FF6FF72069BA286C4E978
:105DEC000A562664A4F84460E364204670BD00BFE4
:105DFC0094A30D007C910D00F8B50446806A0D4605
:105E0C0090B194F9301002F0D1F9A06A0368002126
:105E1C009B689847A06A036829469B689847A06AC4
:105E2C00BDE8F84002F0C9B994F93530014698B292
:105E3C0002F0E3FD606A20B12946BDE8F84001F0AC
:105E4C0075BD0826802794F9330005EA070180B256
:105E5C0002F0D3FD94F93400012180B202F0CDFDA3
:105E6C0094F93400002180B202F0C7FD013E4FEAE4
:105E7C005707E8D1F8BD38B50446806A0D4680B1A5
:105E8C00A16C02F085F9002D204614BFA721A62194
:105E9C00FFF7B2FFA06A88B1E16CBDE8384002F0B0
:105EAC0077B9606A18B104F1380101F0D1FC94F9AA
:105EBC003600002180B202F0A0FDE4E72046BDE8E8
:105ECC003840FFF75CBF2DE9F8430446806A0D4665
:105EDC008F1840B394F9301002F068F9A06A036887
:105EEC0000219B6898470126BD42A06A17D01F2E3F
:105EFC000CD902F062F994F93010A06A02F056F94C
:105F0C00A06A036800219B6898470126A06A15F8CF
:105F1C00011B036801369B689847F6B2E4E7BDE8BD
:105F2C00F84302F04AB994F93530014698B202F0C0
:105F3C0064FDAF4222D0606A15F8019B18B1494646
:105F4C0001F0F4FCF5E708264FF0800894F93300D3
:105F5C0009EA080180B202F050FD94F934000121E5
:105F6C0080B202F04AFD94F93400002180B202F0B4
:105F7C0044FD013E4FEA5808E8D1DAE7BDE8F88362
:105F8C00B0F90A30DA1D48BF03F10E02B0F908303F
:105F9C00C06AD2105A43002102F018BF2DE9FF410C
:105FAC001E46C36A9DF8288004460F461546B3B1B9
:105FBC002046FFF7E5FFB4F90A00B4F908102028D1
:105FCC001FDC20230122CDE90132203873237339E1
:105FDC00009300EBD070894B01EBD1711FE0B0F94D
:105FEC000A30D81D48BF03F10E00B4F90830C010B8
:105FFC00584301F069FBE0620028D9D104B0BDE838
:10600C00F08140234FF0010CCDE9013C5223403884
:10601C00523900937A4B00EBD07001EBD17140F305
:10602C004F0241F34F012046FFF7E6FAA06A84F8CD
:10603C003170002878D0002D74D1B4F90A30202B9F
:10604C000CBF3C253D2584F83050B8F1000F01D031
:10605C0002F0A2F8FEB194F9370000281BDB0121F5
:10606C0080B202F0B9FC94F93700012180B202F041
:10607C00C4FC012001F006FE94F93700002180B227
:10608C0002F0BBFC0A2001F0FDFD94F93700012160
:10609C0080B202F0B2FCA06A002874D0A16C02F0AD
:1060AC0077F8042257492046FFF70DFFA17A0139F2
:1060BC00C9B22046FFF7A0FE534904222046FFF741
:1060CC0002FF94F93130012B0CBF10211421204612
:1060DC00FFF792FE04224D492046FFF7F4FEA36819
:1060EC004B4A93425CD14B4904222046FFF7EBFE0E
:1060FC00D9212046FFF780FE94F93130012B0CBFDB
:10610C002221F1212046FFF777FE20464249062244
:10611C00FFF7D9FEA06A002863D0E16C02F038F8D2
:10612C0001206BE76DB28EE794F93500012180B246
:10613C0002F052FC94F93600012180B202F04CFCC2
:10614C0094F93600012180B202F057FC656A3DB12A
:10615C00B8F1000F3FF47EAF284601F03BFB79E726
:10616C0094F93300012180B202F036FC94F934002A
:10617C00012180B202F030FC94F93400294680B23F
:10618C0002F03BFC66E7606A18B104F1380101F0DB
:10619C005FFB94F93600002180B202F02EFC80E700
:1061AC001E4A93420ED11E4903222046FFF78BFE56
:1061BC0094F93130012B0CBF9F21CF212046FFF7E2
:1061CC001BFE95E7174A934292D1174903222046AA
:1061DC00FFF779FE94F93130012B0CBF1021AF2160
:1061EC00ECE794F93600012180B202F006FC606AFB
:1061FC00002895D001F012FB92E700BFACA10D0076
:10620C00EC9E0D00F4A30D00F8A30D00FCA30D00F3
:10621C008000200006A40D0000A40D0080004000AA
:10622C000AA40D00600010000DA40D0070B5002A2A
:10623C00BDF810503DDBB0F90A40944239DD00291D
:10624C00BEBF5B181BB20021B0F90840CE18A642A5
:10625C00C4BF631A1BB2002B2BDDC06AD61014FB13
:10626C000611014402F0070001228240012DD2B236
:10627C0016D0022D0BD0E5B9D243D2B20B449942C1
:10628C0017D011F8010B104001F8010CF7E70B4483
:10629C0099420ED011F8010B504001F8010CF7E7B0
:1062AC000B44994205D011F8010B104301F8010C75
:1062BC00F7E770BDF0B50029BDF8146076DBB0F9D6
:1062CC000850A94272DA002ABCBFD21813B2B0F936
:1062DC000A40B8BF0022D718A742C4BFA31A1BB2EA
:1062EC00002B63DDC2F3C404C76A15FB041112F062
:1062FC000702DBB207EB010423D0C2F10802D2B2D1
:10630C002C4D93423CBF4FF0FF0CA2EB030EAD5C47
:10631C003CBF4CFA0EFC0CEA0505012E07D0022EF0
:10632C002ED04EB917F801C02CEA050503E017F87A
:10633C0001C045EA0C057D54934237D3B0F90810DF
:10634C000C449A1AD2B2072A0ED9022E1DD113462A
:10635C002178C9432170083BB0F90810DBB2072B38
:10636C000C44F5D802F0070202B3134B012E9B5CD0
:10637C0019D0022E1BD0CEB9227822EA030314E0E6
:10638C0017F801C085EA0C05D5E7002E14BFFF25D0
:10639C00002513462570083BB0F90810DBB2072B1B
:1063AC000C44F7D8DEE7227813432370F0BD227833
:1063BC005340FAE7E4A30D00ECA30D0070B41446AF
:1063CC00827EBDF80C60022A0DD0032A18D0012A57
:1063DC0011D10289E443144424B203960A4621469F
:1063EC0070BCFFF767BF42890589E4431944144424
:1063FC00691A24B209B20396224670BCFFF716BF85
:10640C0045891944691A09B2E7E730B41446827E0B
:10641C00BDF80850022A0DD0032A18D0012A11D138
:10642C00E2180489A41A24B202950A46214630BC0B
:10643C00FFF7FCBE0289C9431144E2184489A41A2F
:10644C0009B224B20295224630BCFFF733BF428911
:10645C00C943114409B2E7E7002930B534DBB0F980
:10646C000C308B4230DD002A2EDBB0F90E3093421B
:10647C002ADD837EB0F90850022B17D0032B1DD0D8
:10648C00012B03D1D24353190A4619B2002A1346E1
:10649C00B8BFD31DDB1013FB0511C36A585C02F0A7
:1064AC00070240FA02F202F0010030BD4389C943F1
:1064BC00D24329441A4409B212B2E7E74489C943CA
:1064CC000C44114622B2E1E70020EEE72DE9F84337
:1064DC000446806A002842D0A16C01F059FE47495D
:1064EC0005222046FFF7EFFC217A01392046C9B27C
:1064FC00FFF782FCB4F90A30DE1D48BF03F10E062B
:10650C00D4E90A052389F61013FB06F615FA86F66C
:10651C0000283AD094F9301001F048FEA06A0368C4
:10652C0040219B6898470127B542A06A24D01F2FB1
:10653C000CD901F042FE94F93010A06A01F036FE3D
:10654C00A06A036840219B6898470127A06A15F848
:10655C00011B036801379B689847FFB2E4E7606A48
:10656C0018B104F1380101F073F994F936000021E7
:10657C0080B202F042FAB2E701F01FFEA06A78B3D3
:10658C00E16CBDE8F84301F003BE94F9350001213C
:10659C0080B202F032FAB542F0D0606A15F8019B75
:1065AC0018B1494601F0C2F9F5E708274FF0800809
:1065BC0094F9330009EA080180B202F01EFA94F94A
:1065CC003400012180B202F018FA94F93400002151
:1065DC0080B202F012FA013F4FEA5808E8D1DAE72C
:1065EC0094F93600012180B202F007FA606A18B102
:1065FC00BDE8F84301F012B9BDE8F88310A40D0012
:10660C00704710B52821044602F0A5FA204610BDAB
:10661C0010B5044600F11801C06801F019F9208A80
:10662C000021BDE8104002F0E8B910B50446012184
:10663C00008A02F0E2F9E068BDE8104001F0EEB823
:10664C00F8B51E4603685B690F4614460546984725
:10665C00012E88BF47F04007E86847F0800101F041
:10666C0065F92644B44206D0E868002101F05EF9D1
:10667C0004F8010BF6E72B6828469B699847012024
:10668C00F8BDF8B51E4603685B690F46144605460F
:10669C009847012E88BF47F04007E868394601F05B
:1066AC0045F92644B44205D014F8011BE86801F002
:1066BC003DF9F7E72B6828469B6998470120F8BD00
:1066CC000022027042708270C2700271427182713B
:1066DC00C27102724272827270475722027040225B
:1066EC008270FF22C171427270470000024AC0E9F9
:1066FC00002100220272704730A40D0013B503680C
:10670C0001AADC680123A0479DF8040002B010BD6B
:10671C0038B505460A240F212846FFF7EFFF33282A
:10672C004FF0010004D001F0ADFA013CF3D120464A
:10673C0038BD10B50446018AC06801F05CF82046EB
:10674C00BDE81040FFF7E4BFF7B50C46272105461E
:10675C00FFF7D4FF00F00800002814BF0126002624
:10676C001BD02B686A46DF68282106232846B847C9
:10677C009DF801209DF8003043EA022323809DF808
:10678C0003209DF8023043EA022363809DF8052024
:10679C009DF8043043EA0223A380304603B0F0BDD9
:1067AC0013B503688DF804201C6901AA0123A047C6
:1067BC0002B010BD70B503689B6804460D4698473F
:1067CC00064630B901F0FEFB274901F0C4F930460A
:1067DC0070BD2A7820212046FFF7E2FF6A7821213C
:1067EC002046FFF7DDFFAA7822212046FFF7D8FFCD
:1067FC00EA7823212046FFF7D3FF2A79242120466B
:10680C00FFF7CEFF6A7925212046FFF7C9FFAB7948
:10681C001BB126212046FFF771FFAA7A2E212046B4
:10682C00FFF7BEFFAB785B06D1D5EA793221204663
:10683C00FFF7B6FF2A7A33212046FFF7B1FF6368D2
:10684C00002B0ADB6A7A227220463021FFF7A8FF60
:10685C0031212046FFF752FFB9E700222272302186
:10686C002046FFF79DFFB2E715A40D0001F00ABA10
:10687C0000F0E6BC704770477047000003065ABF33
:10688C00024B53F820000020704700BF68A40D0095
:10689C0003065ABF024B53F820000020704700BF7C
:1068AC0068A60D0091F85C3010B50446016013B178
:1068BC00886D00F0DDFC204610BD10B5036893F820
:1068CC005C20044612B1986D00F0DAFC204610BD35
:1068DC00F8B51F469DF8243004460D4616462BB1DC
:1068EC00012380F85C30583000F0B2FC089B236325
:1068FC000023636306B1A66425B1294604F1380070
:10690C0001F0B6F8069B2365079BE069A4F84C7070
:10691C00FF2BB8BFFF23A4F8543008B1FDF7B9FB27
:10692C00B4F85400FDF7B1FBE061F8BD2DE9FF416F
:10693C0004460025174698460E4601F08FFE0D4979
:10694C00E56104F1380001F07FF89DF82830A5646A
:10695C00CDE90283FF220F23CDE90032204684F8D3
:10696C005C503B462A463146FFF7B2FF204604B046
:10697C00BDE8F081E78F0D0010B50446204601F00C
:10698C00C9FD0028FAD0204601F0FDFCC0B210BDB4
:10699C002DE9F0470546C4690F46FFF7EDFF20705F
:1069AC00EB6993F800A04FF001090AF0F00A4FF0E0
:1069BC0000084C462846FFF7DFFF2646EB69985542
:1069CC0000F07F0313FB09F3984401340306A4B2CF
:1069DC001FFA88F84FEAC919ECD4631EBAF1300FCC
:1069EC003B7024D12846EF69FFF7C6FF385528467F
:1069FC00EF69F41CFFF7C0FF0236B6B2A4B2B8556B
:106A0C000226B6B2B1462746C14512D22846FFF738
:106A1C00B3FFB5F85430BB4288BFEB6909F10109EB
:106A2C0088BFD8550137BFB21FFA89F9ECE70026A9
:106A3C00E7E7A8EB0600B0452CBF06460026344419
:106A4C00B5F85400A4B2A0422CBF20460020BDE8EB
:106A5C00F087F7B58C461E461D4607460023AE460A
:106A6C0002A805F07F01BEF17F0F03F1010403447E
:106A7C0088BF41F08001BEF17F0F4FEAD515E4B21B
:106A8C0003F8041C10D8C4F10403D11802F803C095
:106A9C00C4F10503134401A80532934206D010F843
:106AAC00015B03F8015BF8E72346D8E7721C22442C
:106ABC00384601F092FB054600F0C2FB621C78627E
:106ACC003244A8B2131A5842584103B0F0BD13B562
:106ADC000446014601A8FFF7E5FEE369E0221A70BF
:106AEC00E36900225A70E1690222204601F075FB2D
:106AFC00204601F069FD00F0A3FBC4E9090001A8E0
:106B0C00FFF7DBFE02B010BD0233F0B5044698B2BD
:106B1C000023CD5C55B1B4F85460864203F10107F3
:106B2C0004D9461C15543B46B0B2F2E799B2441A4C
:106B3C002244091202F8021C02F8013CF0BD38B5DF
:106B4C00044601F060FB002814BF0125002502D18A
:106B5C00204601F039FD284638BD00002DE9F047EC
:106B6C0088B00446DDF840809DF850A08946174651
:106B7C001E46FFF7E4FF0546002840F0CB80214677
:106B8C0001A8FFF78FFEA16C002940F08780B4F8B4
:106B9C004C20A16B2B46204601F074FD002879D0C7
:106BAC00012323849DF85430E269042B40F081804A
:106BBC00594B186899889B79ADF80C108DF80E30EC
:106BCC000290C2F805009DF80E30BDF80C10A2F82A
:106BDC000910D3720C23B8F1000F7FD09DF8480038
:106BEC009DF84420400140EAC20040F00600C0B2CB
:106BFC00BAF1000F01D100F0FD001FB1002E6FD1D2
:106C0C0040F08000E269D054226DE169581C1212E8
:106C1C000A549A1CE169206D88540333E269494691
:106C2C002046FFF771FF0346B8F1000F0BD0E26965
:106C3C0041462046FFF768FFE26913990346204658
:106C4C00FFF762FF034667B1E26939462046FFF75A
:106C5C005BFF03462EB1E26931462046FFF754FF35
:106C6C000346053BE2699BB210212046FFF7F1FE7B
:106C7C0000F0E6FAC4E909004FF47A76204601F0F8
:106C8C0049FC80BB00F0DCFAA36AC01A236D734385
:106C9C009842F3D9204601F097FC34E002A801F0A9
:106CAC0025F9B4F84C202B4602A9204601F0B7FB7D
:106CBC0074E71A4B186859681B7A0DF1080CACE88C
:106CCC0003008CF8003002AB03CBC2F80500C2F80D
:106CDC0009109CF8003053730E237CE7022087E7E1
:106CEC0040F0C0008EE702A92046FFF751FE0428B1
:106CFC00D0D1E369DE78002ECCD100F0A1FA0125C9
:106D0C00A06284F82C6001A8FFF7D7FD284608B0D4
:106D1C00BDE8F0870025F9E768A80D006FA80D0005
:106D2C007FB501230422CDE904320023CDE90233DF
:106D3C00CDE900331A46FFF711FF07B05DF804FBED
:106D4C002DE9F74FDDF83C809DF834509DF83890D4
:106D5C0004468B4616461F46FFF7F1FE8246002876
:106D6C0051D0214601A8FFF79DFDB4F85420E069ED
:106D7C00002102F02BF80523E26959462046FFF763
:106D8C00C3FE6B1E012B15D8218CE369013189B22E
:106D9C00218409121954421CE369218C92B20230ED
:106DAC00995480B2B8F1000F04D0238C5A1C228461
:106DBC00A8F8003000210B188F42E2699BB20AD967
:106DCC00B4F854C09C4506D916F801C002F803C0AB
:106DDC00013189B2EFE79DF8301000290CBF30214A
:106DEC003121B9F1000F01D041F00801022D0ED173
:106DFC0041F00401053B9BB22046FFF72AFE824678
:106E0C0001A8FFF75AFD504603B0BDE8F08F012DE5
:106E1C0008BF41F00201EDE71FB5089C0394002464
:106E2C0002949DF81C4001949DF818400094FFF7C3
:106E3C0087FF04B010BD30B587B0044610460591ED
:106E4C00049201F0F9FF00250346CDE90155DDE977
:106E5C00042100952046FFF7DFFF07B030BD73B566
:106E6C0004460E46FFF76BFE0546C8B1214601A845
:106E7C00FFF718FDE36962221A70E36902225A7067
:106E8C00E36932129A70E369DE70E16904222046EC
:106E9C0001F0A3F9051E01A818BF0125FFF70DFD90
:106EAC00284602B070BD73B504460E46FFF747FE88
:106EBC000546C8B1214601A8FFF7F4FCE36972222C
:106ECC001A70E36902225A70E36932129A70E3690C
:106EDC00DE70E1690422204601F07FF9051E01A84D
:106EEC0018BF0125FFF7E9FC284602B070BD2DE95B
:106EFC00F04F2DED028B87B000AF0446FFF71FFE5D
:106F0C008146F8B1214607F11400FFF7CBFC00F0E5
:106F1C0097F9226D4FF47A735343A26A821A9A42FC
:106F2C00064603D8626A821A934221D294F82C3016
:106F3C007BB1204601F048FB4FF0000907F114002B
:106F4C00FFF7BBFC48461C37BD46BDEC028BBDE8C9
:106F5C00F08FE269C0211170E2695370E16902227D
:106F6C00204601F03AF9C4E90966012384F82C3073
:106F7C00204601F0CFFA0028E0D007F1130120469B
:106F8C00FFF706FD83460028D8D0E369A66219787E
:106F9C0001F0F002302A7FD1D4F830A0BAF1000F02
:106FAC00CCD097F813C06A4608EE102A03EB0C02FB
:106FBC005578917801EB05218DB205F108026946EF
:106FCC00D208A1EBC20295460CF10302FA6003EB66
:106FDC00020E0DEB05026846C7F808D07A60D7E9B7
:106FEC0001218A4206D00A461EF8018B02F8018B59
:106FFC00BA60F4E70022425593F80080F96808F073
:10700C000608ABEB0C02033AB8F1020FA2EB050237
:10701C00294425D113F801E01944023A91F801B042
:10702C000CF10501294419440BEB0E2BD047E369F5
:10703C0040221A70E3691FFA8BFB83F80180E36925
:10704C004FEA2B229A70E36983F803B0E1690422BA
:10705C00204601F0C2F8666218EE103A9D466DE7C4
:10706C00B8F1040F15D113F801E01944023A91F864
:10707C0001B00CF10501294419440BEB0E2BD04740
:10708C00E36950221A70E36902221FFA8BFB5A70D3
:10709C00D5E71944D047DFE7502A08D19A78D97838
:1070AC0001EB022189B22046FFF7D9FE46E7402AC0
:1070BC0012D1626B002A3FF441AFBBF1040F7FF495
:1070CC003DAF11F0060F7FF439AF9978D87800EB0B
:1070DC00012080B2904731E7602A08D19A78D9789C
:1070EC0001EB022189B22046FFF7DDFE26E7702A6C
:1070FC00DFD0902A3FF422AFC02A0AD1D0221A70D6
:10710C00E36900225A70E1690222204601F065F819
:10711C0014E7D02A04BF002384F82C300EE70000BB
:10712C0038B50546FFF70BFD10B12846FFF7CFFC2D
:10713C00E86908B1FCF7ADFF05F1380000F039FC47
:10714C00AC690A4B2B607CB16368013B63605BB933
:10715C00236820469B689847A368013BA3601BB932
:10716C0023682046DB689847284638BDBCA90D002B
:10717C0008B5024B1B689B68019308BD68020300AD
:10718C0008B5024B1B68DB68019308BD680203005D
:10719C0008B5024B1B685B68019308BD2C02030009
:1071AC0008B5024B1B689B68019308BD2C020300B9
:1071BC0008B5024B1B68DB68019308BD2C02030069
:1071CC0008B5024B1B681B69019308BD2C02030018
:1071DC0008B5024B1B685B69019308BD2C020300C8
:1071EC0008B5024B1B689B6A019308BD2C02030077
:1071FC0008B5024B1B681B6B019308BD2C020300E6
:10720C0008B5024B1B689B6F019308BD2C02030051
:10721C0008B5024B1B685B69019308BD6C02030047
:10722C0008B5024B1B685B68019308BD180203008C
:10723C0008B5024B1B68DB68019308BD18020300FC
:10724C0008B5024B1B685B69019308BD180203006B
:10725C0008B5024B1B681B6B019308BD4802030069
:10726C0008B5024B1B685B6B019308BD4802030019
:10727C0008B5024B1B689B6B019308BD48020300C9
:10728C0008B5024B1B681B6C019308BD4802030038
:10729C0008B5024B1B685B6C019308BD48020300E8
:1072AC0008B5024B1B689B6C019308BD4802030098
:1072BC0008B5024B1B685B69019308BD64020300AF
:1072CC0008B5024B1B681B6A019308BD64020300DE
:1072DC0008B5024B1B689B6A019308BD640203004E
:1072EC0008B5024B1B681B68019308BD3C020300E8
:1072FC0008B5024B1B68DB68019308BD3C02030018
:10730C0008B5024B1B681B69019308BD3C020300C6
:10731C0008B5024B1B685B69019308BD3C02030076
:10732C0008B5024B1B689B69019308BD3C02030026
:10733C0008B5024B1B68DB69019308BD3C020300D6
:10734C0008B5024B1B681B6A019308BD3C02030085
:10735C0008B5024B1B689B6A019308BD3C020300F5
:10736C0008B5024B1B681B68019308BD280203007B
:10737C0008B5024B1B68DB68019308BD28020300AB
:10738C0008B5024B1B689B69019308BD28020300DA
:10739C0008B5024B1B68DB69019308BD280203008A
:1073AC0008B5024B1B681B6A019308BD2802030039
:1073BC0008B5024B1B685B6A019308BD28020300E9
:1073CC0008B5024B1B689B6A019308BD2802030099
:1073DC0008B5024B1B68DB6A019308BD2802030049
:1073EC0008B5024B1B681B6B019308BD28020300F8
:1073FC0008B5024B1B685B6B019308BD28020300A8
:10740C0008B5024B1B681B6C019308BD28020300D6
:10741C0008B5024B1B689B69019308BD3802030039
:10742C0008B5024B1B68DB69019308BD38020300E9
:10743C0008B5024B1B681B6A019308BD3802030098
:10744C0008B5024B1B689B6A019308BD3802030008
:10745C0008B5024B1B681B6B019308BD3802030077
:10746C0008B5024B1B689B6B019308BD38020300E7
:10747C0008B5024B1B681B68019308BD3002030062
:10748C0008B5024B1B685B69019308BD3002030011
:10749C0008B5024B1B68DB69019308BD3002030081
:1074AC0008B5024B1B681B6A019308BD3002030030
:1074BC0008B5024B1B685B6A019308BD30020300E0
:1074CC0008B5024B1B68DB6B019308BD300203004F
:1074DC0008B5024B1B681B6C019308BD30020300FE
:1074EC0008B5024B1B685B6C019308BD30020300AE
:1074FC0008B5024B1B681B68019308BD4C020300C6
:10750C0008B5024B1B685B68019308BD4C02030075
:10751C0008B5024B1B681B69019308BD4C020300A4
:10752C0008B5024B1B685B69019308BD4C02030054
:10753C0008B5024B1B689B69019308BD4C02030004
:10754C0008B5024B1B68DB69019308BD4C020300B4
:10755C0008B5024B1B681B6A019308BD4C02030063
:10756C0008B5024B1B685B6B019308BD60020300FE
:10757C0008B5024B1B681B6D019308BD600203002C
:10758C0008B5024B1B685B68019308BD2002030021
:10759C0008B5024B1B685B69019308BD2002030010
:1075AC0008B5024B1B68DB6A019308BD200203007F
:1075BC0008B5034B1B68D3F88830019308BD000055
:1075CC002002030008B5034B1B68D3F894300193D9
:1075DC0008BD00002002030008B5024B1B685B6865
:1075EC00019308BD4002030008B5024B1B689B6861
:1075FC00019308BD4002030008B5024B1B68DB6811
:10760C00019308BD4002030008B5024B1B681B69BF
:10761C00019308BD4002030008B5024B1B685B696F
:10762C00019308BD4002030008B5024B1B689B691F
:10763C00019308BD4002030008B5024B1B68DB69CF
:10764C00019308BD4002030008B5024B1B681B6A7E
:10765C00019308BD4002030008B5024B1B681B6B6D
:10766C00019308BD4002030008B5024B1B685B6B1D
:10767C00019308BD4002030008B5024B1B681B6C4C
:10768C00019308BD4002030008B5024B1B685B6CFC
:10769C00019308BD4002030008B5024B1B689B68B0
:1076AC00019308BD4402030008B5024B1B68DB695B
:1076BC00019308BD4402030008B5024B1B68DB6B49
:1076CC00019308BD4402030008B5024B1B681B68FC
:1076DC00019308BD1C02030008B5024B1B685B68D4
:1076EC00019308BD1C02030008B5024B1B689B6884
:1076FC00019308BD1C02030008B5024B1B68DB6933
:10770C00019308BD1C02030008B5024B1B685B6AA1
:10771C00019308BD1C02030008B5024B1B68DB6B10
:10772C00019308BD1C02030008B5024B1B685B6C7F
:10773C00019308BD1C020300002240681146FFF7AC
:10774C0083BF002240681146FFF78EBF40680022BD
:10775C00FFF782BF4068002281F00101FFF76CBF88
:10776C00002340681A461946FFF75EBF00234068A5
:10777C001A461946FFF750BF002240681146FFF722
:10778C0043BF002240681146FFF72EBF406800221D
:10779C000221FFF731BF002340681A46FFF71CBFD8
:1077AC00024B03225A60024A1A60704750E60320CB
:1077BC0080A80D000021FFF78BBE0021FFF790BEC3
:1077CC0010B5044608462170FFF762FE0023636083
:1077DC00204610BD10B504460078FFF7EBFF48B902
:1077EC0020784FF6FF71FFF743FE2078BDE810407C
:1077FC00FFF7E3BF10BD13B5044600780191FFF706
:10780C00D9FF019940B92078FFF732FE207802B0F9
:10781C00BDE81040FFF7D1BF02B010BD0078FFF7F4
:10782C00CCBF0000400830B51860002418688842AE
:10783C00E5B206D90134082C02D040081860F5E7EF
:10784C000725024B5B5D137030BD00BFB4A80D0063
:10785C002DE9F04306468FB000780C46FFF7AAFFDF
:10786C0000281BDB35781422002109A801F0AEFAA0
:10787C000B23002209A92846ADF82430FFF718FE87
:10788C009DF82D3013B19DF82C5055B10027B946F9
:10789C00B846012523795DB1C3B100200FB0BDE816
:1078AC00F083DDF830809DF834909DF83570F1E769
:1078BC00002B35D1A368434508D18DF820908DF865
:1078CC002170BDF82020A3899A42E6D00023A1683C
:1078DC008DF80F300A9804AB0DF10F02FFF7A2FFE1
:1078EC00217985B989B9A36843450ED38DF82090C9
:1078FC008DF82170BDF82020A3899A4205D1049BF4
:10790C00434502D1C9E70029F9D100230193637BD8
:10791C0000939DF80F20237B3078FFF7D1FDBCE757
:10792C00CDE900552B462A460121F5E708B500782C
:10793C00FFF7A6FDC0B208BD10B50446006818B12B
:10794C00FFF7CAFE0023236010BD10B50446FFF7F5
:10795C00F3FF204610BD000010B5094B094C022264
:10796C0000201A60084B2060A080A071A360FFF774
:10797C0007FE2046054A0649BDE8104001F0E6B86E
:10798C0064E6032058E603200000FFFFD4E4032044
:10799C0057790D0070B586B0064601AD684600F00B
:1079AC00A5FA0FCD341D0FC42B682370304606B0DA
:1079BC0070BD10B504460068FFF78EFE204610BD62
:1079CC0010B50446006808B1FFF786FE0023C4E931
:1079DC000133236010BD38B504460D4600680131F3
:1079EC00FFF782FE10B1C4E90005012038BD10B5C7
:1079FC000368044623B143688B4201D3012010BDB8
:107A0C002046FFF7E8FF0028F9D0A368002BF5D13A
:107A1C0022681370F2E737B50D4611460192044601
:107A2C00FFF7E5FF019A28B92046FFF7C9FF20466A
:107A3C0003B030BDA2602946206801F0B9F9226874
:107A4C00A3680021D154F2E7002313B5C0E9003339
:107A5C0004468360037341B10846019101F0ECF9CF
:107A6C00019902462046FFF7D6FF204602B010BD12
:107A7C0013B5044659B10846019101F0DDF901999D
:107A8C0002462046FFF7C7FF204602B010BDFFF7A5
:107A9C0097FFF9E710B50446006808B1FFF700FC42
:107AAC00204610BD10B58368044613B1032201466D
:107ABC009847204610BD000010B5064C0023204608
:107ACC002360FFF7E5FB2046034A0449BDE810405C
:107ADC0001F03CB868E60320D4E40320A17A0D0041
:107AEC00F8B506460D468F180024BD420CD03368FD
:107AFC0015F8011B9B6830469847031E01DB1C449C
:107B0C00F3E7002C08BF1C462046F8BD13B504460D
:107B1C00084659B1019101F08FF923680199DB688E
:107B2C000246204602B0BDE81040184702B010BD16
:107B3C0008B5FFF7EBFF08BD03689B68184738B51D
:107B4C000D210546FFF7F8FF0A2104462846FFF7EA
:107B5C00F3FF204438BD38B50546FFF7D7FF044680
:107B6C002846FFF7ECFF204438BD30B58BB000231E
:107B7C008DF82430012A98BF0A2209AC0D46B1FBBE
:107B8C00F2F101FB125303F0FF03092B94BF3033C6
:107B9C003733DBB2AA4204F8013DEFD92146FFF797
:107BAC00B5FF0BB030BD2DE9F04186B000AF0546F6
:107BBC000E46381D142114463B60FFF7A5FD132813
:107BCC000ED8391D2846FFF7A1FF04461EB12846E2
:107BDC00FFF7B5FF044420461837BD46BDE8F081D9
:107BEC0000F1080323F00703E846ADEB030D224632
:107BFC00411C3B686846FFF787FD69462846FFF73E
:107C0C0085FF0446C546E1E710B50446FFF718FBAF
:107C1C00E060236820465B699847002808DAFFF784
:107C2C000FFBE368C01AA3689842F2D34FF0FF3001
:107C3C0010BDF8B506460D4617460024BC4207D0C9
:107C4C003046FFF7E1FF031E02DB2B550134F5E74D
:107C5C002046F8BD002340681A461946FFF7DCBCE5
:107C6C00014B024A1A6070476CE60320C4A80D0051
:107C7C00024B1A68024B1A60704700BF6CE4032079
:107C8C0070E603200021FFF783BC10B50446FFF714
:107C9C0009FF204610BD00000348044A0449002394
:107CAC00836000F053BF00BF74E60320D4E40320CC
:107CBC00977C0D00014B1860704700BF70E40320E7
:107CCC0008B50B4B43B100F07DF903681B6998476D
:107CDC00002801DDAFF30080064B43B100F0F0F952
:107CEC0003681B699847002801DDAFF3008008BDCD
:107CFC00000000000000000008B5FFF7E1FFFFF7EF
:107D0C009FFA014B186008BDD4E703200248034AD0
:107D1C000349121A01F04CB800F4032004F40320B8
:107D2C00A0AC0D0007B5002300931A466FF0770145
:107D3C00FFF748FC03B05DF804FB000007B543886F
:107D4C000A2B08D0502B0BD1094B1B684BB103B03D
:107D5C005DF804EB1847FFF7E5FF03B05DF804FB93
:107D6C00002300931A466FF07701FFF72BFCF4E722
:107D7C0088E6032038B5124C1248134D0021FFF74A
:107D8C00D3FC2368AB42114B0CBF012200221A70AA
:107D9C0002D0FFF7BBFF2560FFF742FA044601F063
:107DAC001DF80B4B13B12046AFF30080002108489F
:107DBC00FFF782FCBDE8384006480021FFF7F8BB0E
:107DCC0000F40320C17C0D001E1C279A84E60320BE
:107DDC0000000000497D0D00704710B518210446C5
:107DEC0000F0B9FE204610BDF0B5037D062B8DB01A
:107DFC000E4600F104074FF0000412D000F1080504
:107E0C0015F8011D0A223046FFF7AFFEAF420444BD
:107E1C0019D0002CF4D02E213046FFF78DFE0444EF
:107E2C00EEE72F236A4639460A208DF80040FFF70B
:107E3C003FFA684601F000F833680246DB68694691
:107E4C0030469847044620460DB0F0BD10B5054BA2
:107E5C000446112240F8043B002100F0B7FF2046F5
:107E6C0010BD00BFECA80D000346074A10B543F83F
:107E7C00042B01F1100251F8044B43F8044B9142CE
:107E8C00F9D10A781A7010BDECA80D00037D042BF3
:107E9C0004D14068003818BF01207047062B07D169
:107EAC0043683BB983682BB9C3681BB90069F1E718
:107EBC00002070470120704710B59DF8084044EA37
:107ECC00032343EA024242EA016104234160037541
:107EDC0010BD000037B5044D05609DF81850009595
:107EEC00FFF7EAFF03B030BDECA80D0013B5054B4E
:107EFC000360CB7800938B784A780978FFF7DCFF26
:107F0C0002B010BDECA80D0041747047704708B565
:107F1C000021007CFFF70CFB40EAE07008BD08B5BF
:107F2C000121007CFFF704FB40EAE07008BD08B5B6
:107F3C00007CFFF7F5FA20EAE07008BD08B5007C7C
:107F4C00FFF7E6FA20EAE07008BD13B50446007CA2
:107F5C000191FFF7E5FA0028019901DC607C20B162
:107F6C00207CFFF7EDFA20EAE07002B010BD007C37
:107F7C00FFF7EEBA10B51421044600F0ECFD2046D4
:107F8C0010BD000010B54FF47A730446084600216A
:107F9C00C4E90113044B236001232074637411465C
:107FAC00FFF7A6FA204610BD00A90D00007C0022A8
:107FBC00FFF7A6BA10B514220446002100F006FF04
:107FCC00204610BD10B5104C88B003A8FFF7F2FF87
:107FDC002178BFF35B8F11F0010111D12046019183
:107FEC00FCF764F8019958B103AA0848FFF7CAFFD7
:107FFC002046FCF760F8064A0649044800F0A6FD46
:10800C00024808B010BD00BF8CE6032090E60320A8
:10801C00D4E40320197F0D0070474174704708B5F4
:10802C00007CFFF795F920EAE07008BD08B5007CEC
:10803C00FFF766F920EAE07008BD08B5007CFFF791
:10804C006FF940EAE07008BD08B5007CFFF760F9F5
:10805C0040EAE07008BD007CFFF76AB937B5457C93
:10806C0004462DB1207C03B0BDE83040FFF740B989
:10807C00007C0191FFF76CF900280199F2DC28468D
:10808C0003B030BD10B51421044600F064FD204649
:10809C0010BD000010B54FF0000C04460846114608
:1080AC004FF47A72C4E901C2044A2260012220749E
:1080BC0062741A46FFF714F9204610BD30A90D0062
:1080CC0013B50E4C2178BFF35B8F11F0010112D167
:1080DC0020460191FBF7EAFF019960B1084A094B70
:1080EC000948FFF7D7FF2046FBF7E5FF074A084989
:1080FC00054800F02BFD044802B010BDA4E6032097
:10810C00A8E603202CE70320B0E70320D4E40320E7
:10811C0025800D007047F8B5064615460C468F189D
:10812C00BC4206D0336814F8011B9B683046984754
:10813C00F6E72846F8BD007C0022FFF731B9007C39
:10814C000021FFF735B9007C0021FFF739B9007C1D
:10815C000021FFF73DB9007C0021FFF741B910B5B4
:10816C001421044600F0F7FC204610BD10B54FF466
:10817C007A73044608460021C4E90113034B2360BB
:10818C0020741146FFF73CF9204610BD60A90D0084
:10819C00007C0022FFF7E4B80023007C1A46194645
:1081AC00FFF7E6B8007C0022FFF7EAB8C9B2FFF788
:1081BC00F9BF007C0022FFF7EBB80121FFF7F9BFF4
:1081CC0013B503688DF80710DC6B01224FF0FF33F9
:1081DC000DF10701A04702B010BD10B40368DC6BB1
:1081EC004FF0FF33A4465DF8044B604713B51346BC
:1081FC0002688DF80710D46B0DF107010122A0471E
:10820C0002B010BD704738B543691A68002A05469C
:10821C0010DAB3F88620B3F884309A420AD1036896
:10822C001B699847044628B92B682846DB6A98478F
:10823C00204638BD0120FCE743691868C043C00FD5
:10824C0070477047064B994210B500F10C0405D0ED
:10825C00084600F085FC002808BF0024204610BD0D
:10826C00BCA80D0010B5AC21044600F074FC2046EF
:10827C0010BDFBF70CBF2DE9F0414FF0000886B0A4
:10828C001D46C0F8048004460E461746414610228F
:10829C0002A800F09BFD6B1C09D04FF47A70B5FB63
:1082AC00F0F3CDE9023800FB135358430490606996
:1082BC0010230093006802AB41F2050240F6FF71F7
:1082CC00FFF7A6F8002807DAFFF726FA03686360C1
:1082DC00002006B0BDE8F0816069002300683A46D2
:1082EC003146FFF7B5F8031EEEDB1846F1E7000048
:1082FC0038B584690A4B036005467CB16368013B61
:10830C0063605BB9236820469B689847A368013B70
:10831C00A3601BB923682046DB689847284638BD04
:10832C00BCA90D0010B50446FFF7E2FF20461C2146
:10833C0000F011FC204610BD70B54D69054B04468C
:10834C008C3544F8043B06460FCD0FC42B682370C4
:10835C00304670BDECA80D0010B54369B3F886200B
:10836C00B3F884309A42044605D06369B3F884208C
:10837C001344187910BD03681B6998470028F4D181
:10838C004FF0FF30F6E710B54369B3F88620B3F829
:10839C0084309A42044608D06369B3F88420511C97
:1083AC00A3F884101344187910BD03681B6998470F
:1083BC000028F1D14FF0FF30F6E7F8B543691746C6
:1083CC00B3F88620B3F884309A4205460E4616D090
:1083DC006969B1F88430B1F88640E41ABC4228BF10
:1083EC003C46043322461944304600F0E1FC6A69ED
:1083FC00B2F884302344A2F884302046F8BD0368D8
:10840C001B6998470028E3D14FF0FF34F5E7426928
:10841C000023A2F884304269A2F8863070472DE917
:10842C00F0411F4603680C46DB6A8AB005461646C7
:10843C009847237DD5F81480042B0CBF02200A200A
:10844C0006220121FFF70CF8C8F800006B691B68C5
:10845C00002B08DA2B682846DB6A00249847204654
:10846C000AB0BDE8F0812846FFF7D1FFB7B1002371
:10847C0003A9F8B20393ADF81030FEF7C9FE00283B
:10848C00E8D1686906230093006803AB41F20B0244
:10849C0040F6FF71FEF7BCFF0028DBD11C22002147
:1084AC0003A800F093FC237D042B1DD14FF407731C
:1084BC003046ADF80C30FEF70BFFADF80E006068DF
:1084CC00FEF7FEFE04906B691C22186803A9FEF7E8
:1084DC00AFFF0028BED104340FCC6D698C350FC5AD
:1084EC0023682B700124BAE740F61C233046ADF804
:1084FC000C30FEF7EDFE05AEADF80E00231D04F1B9
:10850C00140718685968324603C20833BB42164632
:10851C00F7D1D8E730B54269B2F886308BB0044653
:10852C002BB1B2F884209A4201D1FFF770FF616938
:10853C000868002818DBB1F886507F2D14D8043158
:10854C000823C5F180022944FEF77AFF002813DDC9
:10855C006369B3F886200AB9A3F884206369B3F879
:10856C0086201044A3F886006369B3F88600B3F83C
:10857C008430C01A0BB030BDFFF7CEF803680B2B5C
:10858C00F2D0FFF7C9F803680B2BEDD020230025A0
:10859C00CDE90235FFF7C0F803680193084B094990
:1085AC00009302AA2B463220FEF7E2FF636918689B
:1085BC00FEF736FF63694FF0FF321A60D4E700BF55
:1085CC0087A90D0080A90D0010B5436904461868F1
:1085DC00002801DBFEF724FF63694FF0FF321A60BD
:1085EC006069112200218C3000F0F0FB2046BDE8C0
:1085FC001040FFF70CBF10B5002304460160C0F813
:10860C0084308830FFF722FC204610BD73B5002360
:10861C004FF47A72C0E901320E4A03610260436181
:10862C000446AC200191FBF72EFD051E05F10C064E
:10863C0008D00123C5E90133074B01992B60304663
:10864C00FFF7D9FF2046C4E90565FFF7E0FE02B04D
:10865C0070BD00BFBCA90D00A0A90D0010B54FF056
:10866C00FF310446FFF7D2FF204610BD10B504467B
:10867C000068002801DBFEF7D3FE204610BD0C304D
:10868C00FFF7F4BF2DE9F0439846036893B00D460D
:10869C000024DB6A06461746984728466B46224656
:1086AC0021460094FEF76CFD0546002863D1009B23
:1086BC00002B4BD05B69002B48D006A8FFF7C6FBFC
:1086CC00009B5C696378022B04D1211D06A8FFF77F
:1086DC0061F926E00A2B24D11122294601A800F0C9
:1086EC0075FBA368002B38D004F108030DF1040CC2
:1086FC00183418685968624603C20833A34294467A
:10870C00F7D1062301A90CA88DF81430FFF7ACFBA8
:10871C000DF1340CBCE80F0007AC0FC4DCF80030D2
:10872C00237006A8FFF7B2FB80B1336807ADD3F80E
:10873C002090124B0C930FCD0DAC0FC42B682370F3
:10874C003A4643460CA93046C84705460098FEF702
:10875C000FFD284613B0BDE8F083E368002BC3D1AE
:10876C004FF6FF70D4F81090FEF7AAFD8145BBD1EF
:10877C0004F11401AAE72546E8E700BFECA80D00B8
:10878C00002240681146FEF73FBF002240681146A8
:10879C00FEF75ABF002240681146FEF765BF4068DD
:1087AC000022FEF759BF4068002281F00101FEF75C
:1087BC0043BF002340681A461946FEF735BF002216
:1087CC0040681146FEF710BF406800220221FEF7F8
:1087DC0013BF002340681A46FEF7FEBE024B04226C
:1087EC005A60024A1A607047C4E7032008AA0D00B9
:1087FC00002340681A46FEF7EFBE406800220221B3
:10880C00FEF7FABE002240681146FEF7EDBE0022CC
:10881C0040681146FEF7F8BE002340681A46194618
:10882C00FEF7FABE002340681A461946FEF7FCBE56
:10883C0040680021FEF720BF40680021FEF724BFEE
:10884C004068002281F00101FEF7F6BE406800226C
:10885C00FEF702BF002240681146FEF705BF00225A
:10886C0040681146FEF7F0BE2DE9F043002495B0A8
:10887C0016460D460746FFF7E9FA214618220EA8C0
:10888C00009400F0A3FA4023CDE90C3421466B464A
:10889C000CAA3046FEF774FC044600284CD1024664
:1088AC0001216868FEF7B0FE022180462246686806
:1088BC00FEF7AAFE009E81462146002E3CD00029E0
:1088CC003AD17368022B03D00A2B11D0F669F4E766
:1088DC00B8F1000F0AD0716906A8043107ADFFF793
:1088EC0005FB0FCD3C1D0FC42B6823704146EDE7F3
:1088FC00B9F1000F01D14946E8E77469102201A8CB
:10890C0000F064FA06238DF8143001AD04F108036D
:10891C001834186859682A4603C20833A34215460E
:10892C00F7D101A906A807ADFFF79EFA0FCD3C1DA4
:10893C000FC42B682370DEE70098FEF719FC38464D
:10894C0015B0BDE8F0830000024B034A1A60002208
:10895C005A607047CCE7032044AA0D00232813B5B6
:10896C0002D9002002B010BDA0F10B03022B1AD8C3
:10897C00174C2178BFF35B8F11F001010BD120460E
:10898C000191FBF793FB019928B11248FEF718FFF0
:10899C002046FBF790FB0F4B1878FEF781FD002863
:1089AC00DFD10120DEE7012809D800F0A7F800216B
:1089BC00007CFEF71DFD80F00100C0B2D2E7093843
:1089CC000128EED8FFF77CFB007CFEF7B9FCF2E740
:1089DC00D8E40320DCE40320232838B504460D46F4
:1089EC000AD8FF2908D0FFF7B9FF28B1294620463D
:1089FC00BDE83840FEF7D4BB38BD38B504460D464B
:108A0C00FEF7D6FBFF2810D0062804D84D2323FAF6
:108A1C0000F0C30709D42046FFF7A0FF28B1294670
:108A2C002046BDE83840FEF7CBBB38BD10B5044638
:108A3C00FEF7BEFB031FDBB2012B08D92046FFF764
:108A4C008DFF20B12046BDE81040FEF7C1BB0020D1
:108A5C0010BD0D2810B504469CBF0E34A4B22046A0
:108A6C00FFF77CFF50B103212046FEF791FB032852
:108A7C0004D12046BDE81040FEF7BABB002010BD63
:108A8C0038B504460D46FFF769FFF0B104212046C6
:108A9C00FEF77EFB042805D1A9B22046BDE838407C
:108AAC00FEF79EBB02212046FEF772FB02280CD17A
:108ABC002046FEF77DFB012801D0042805D129466C
:108ACC002046BDE83840FEF79BBB38BD38B50023C7
:108ADC0020254380142304460380856005610649E4
:108AEC00284600F03AF804496060284600F035F852
:108AFC00E060204638BD00BF78AA0D0030B50F4DA0
:108B0C002978BFF35B8F11F0010487B013D128468D
:108B1C00FBF7CCFA78B101A8FFF7D8FF01AA2146E0
:108B2C000748FFF723FB2846FBF7C5FA054A064919
:108B3C00034800F00BF8024807B030BDD8E703201B
:108B4C00DCE70320D4E4032021810D000B46014611
:108B5C00184600F01FB9FBF79ABAFBF796BA00005B
:108B6C00014900F0F9B800BF94AA0D007FB50024AC
:108B7C001023CDE90234036800949E698DF80440FB
:108B8C0015466B461268B0479DF8043003F0060397
:108B9C00062B03BF009B2B600120204604B070BD48
:108BAC000098904214BF01200620704710B5034B6B
:108BBC000360044600F0CDF8204610BDD4AA0D0089
:108BCC0010B50446FFF7F2FF20460821FFF7C3FF5C
:108BDC00204610BD2DE9F0411F46DDE90834DDF8D3
:108BEC00188098450646154607D1079900F0B4F849
:108BFC0018B165710020BDE8F0813946304600F0AF
:108C0C00ABF80028F6D00123C4F800802571A371BD
:108C1C00F0E738B515461C4600F09EF820B1082345
:108C2C00E36006232560237138BD73B505460C46F9
:108C3C0001921E4600F090F850B9032E08D8236814
:108C4C00019A5B692946204602B0BDE8704018477E
:108C5C0002B070BD10B5034B03600446FFF7A6FFCE
:108C6C00204610BD34AB0D0010B50446FFF7F2FFE3
:108C7C0020460C21FFF76FFF204610BDF7B5089F6B
:108C8C00974205460E4614460AD0A8680268089713
:108C9C00156A31462246AC4603B0BDE8F040604749
:108CAC001946019300F058F8019B0028EDD00620DE
:108CBC0003B0F0BD2DE9F14F0D461946DDE90A4B25
:108CCC00DDE90CA681461746984600F045F890B1B0
:108CDC00002D3460377109DB61198A450CBF062100
:108CEC000121B171002001B0BDE8F08F0235F9D13E
:108CFC000123B371F6E7544506D15946484600F0B6
:108D0C002BF808B17771EDE7D9F808000368CDE9C5
:108D1C000CA6CDE90A4BDC693A4643462946A446E3
:108D2C0001B0BDE8F04F60472DE9F04107460C4615
:108D3C0015461E46FFF76DFF48B9B86803689F6972
:108D4C002A4633462146BC46BDE8F0416047BDE8A3
:108D5C00F081704700207047814208B50ED0406802
:108D6C0003782A2B0CD049680B782A2B08BF0131C9
:108D7C0000F058F8B0FA80F0400908BD0120FCE77B
:108D8C000020FAE70A22002100F0ECB80A220021A8
:108D9C0000F0E8B810B5054C13462CB10A46014654
:108DAC000220AFF3008010BD2046FCE7000000005D
:108DBC000A44914200F1FF3300D1704710B511F80D
:108DCC00014B03F8014F9142F9D110BD0244034607
:108DDC00934200D1704703F8011BF9E738B50D4BEE
:108DEC001D68AB6B04467BB91820FEF76DFC0A4A74
:108DFC000A4BA863C0E90023094B83600B238381D2
:108E0C0001220023C0E90423AB6B00221C615A61D0
:108E1C0038BD00BF70E403200E33CDAB34126DE6C9
:108E2C00ECDE050010F8012B11F8013B012A28BFDC
:108E3C009A42F7D0D01A7047034613F8012B002A38
:108E4C00FBD1181A0138704710B50139034632B1FD
:108E5C0011F8014F03F8014B013A002CF7D11A44D9
:108E6C000021934200D110BD03F8011BF9E700006B
:108E7C002DE9F0473A4E86468C4660461CF8014B6D
:108E8C00A55D15F00805F8D12D2C33D19CF80040C8
:108E9C004FF0010800F1020C002B5CD0102B0CD110
:108EAC00302C0AD19CF8000000F0DF0058284DD17E
:108EBC009CF8014010230CF1020C08F10047013F13
:108ECC000026B7FBF3F9304603FB197AA4F1300501
:108EDC00092D18D82C46A34224DD751C07D08145DA
:108EEC001DD301D1A2451ADB00FB034001261CF85F
:108EFC00014BEBE72B2C08BF9CF80040A84608BFA1
:108F0C0000F1020CC8E7A4F14105192D01D8373C3A
:108F1C00E1E7A4F16105192D04D8573CDBE74FF0CC
:108F2C00FF36E4E7731C06D12223CEF80030384616
:108F3C0042B9BDE8F087B8F1000F00D04042002ADA
:108F4C00F7D00EB10CF1FF311160F2E73024002B99
:108F5C00B3D10823B1E7302CA4D00A23ADE700BF6E
:108F6C006EAB0D0013460A46014602480068FFF737
:108F7C007FBF00BF70E403201D400D0059400D0061
:108F8C0081400D0085400D000000000064656661A5
:108F9C00756C7420004D5342004C5342003C5350AE
:108FAC004953657474696E67732064656661756C8A
:108FBC00743E003C53504953657474696E6773205A
:108FCC0025732575202573204D4F444525753E008E
:108FDC00256900256C690058203D20003B20592054
:108FEC003D2000696E006F75740070776D006477BA
:108FFC00006177004B4667775079674B5A645A4645
:10900C0035495F6B6B4A74707A3372717264573581
:10901C00355A304A007365747570537563636573A4
:10902C00733D2564006C61622E74686577636C2EE9
:10903C00636F6D0043686F6F73652074686520649F
:10904C006966666963756C747900413A2065617371
:10905C007920646966666963756C747900423A209C
:10906C006D656469756D20646966666963756C7499
:10907C007900433A206861726420646966666963AA
:10908C00756C7479005072657373204120746F2075
:10909C00706C6179207769746820746865206163ED
:1090AC0063656C65726F6D65746572005072657383
:1090BC0073204220746F20706C617920776974681A
:1090CC0020746865204A6F6C79737469636B002532
:1090DC00642C25642C2564006E6F2073616D706C9C
:1090EC00650061626475727261686D616E206A758B
:1090FC00737420636F6D706C65746564207468653F
:10910C002065617379206D617A6500546865204D26
:10911C00617A650061626475727261686D616E205E
:10912C006A75737420636F6D706C657465642074FC
:10913C006865206D656469756D206D617A65006187
:10914C00626475727261686D616E206A75737420E9
:10915C00636F6D706C6574656420746865206861FC
:10916C007264206D617A6500000000000000000050
:10917C0059410D00C9400D00CD400D00626C6E6B65
:10918C00696E660076657200312E302E3000682DC7
:10919C006265617400343500627566662D696E0017
:1091AC003130323400646576005061727469636CDE
:1091BC0065006275696C64004A756C20313520322B
:1091CC003032312032303A34323A3338000000FF3A
:1091DC00FFFFFFFFFFFFFFFFFF800000000000000C
:1091EC000000FF800000000000000000FF80000075
:1091FC00000000000000FF800000000000000000E4
:10920C00FF87E00001FFC00003F0FF842000000096
:10921C0040000200FF842000000040000200FF8498
:10922C002000000040000200FF84200000004000ED
:10923C000200FF843F07FFFFFFF0020FFF840100D5
:10924C000000000002007F8400000000000002000B
:10925C007F8400000000000002007F8400000000FA
:10926C00000002007F8400000000000002007F006C
:10927C000000000000000010FF00000000000000D3
:10928C000010FF000000000000000010FF000000B4
:10929C00000000000010FF000100000000000010A2
:1092AC00FF87FFFFC1FFFFFFFC10FF8400000100E0
:1092BC0040000010FF840000010040000010FF84FB
:1092CC000000010040000010FF840000010040007D
:1092DC000010FF841F07FE083FF003F0FF8400001E
:1092EC00000800000000FF840000000800000000DF
:1092FC00FF840000000800000000FF84000000084C
:10930C0000000000FFFFFFFFFFFFFFFFFFFFFFFF5D
:10931C00FFFFFFFFFFFFFFFF802000000840000061
:10932C001F80200000084000001F80200000084023
:10933C0000001F80200000084000001F8020FFC09C
:10934C000841FFFC1F84000001004000001F840046
:10935C000001004000001F84000001004000001FBD
:10936C0084000001004000001F87FFFFFFF07E001B
:10937C0003FF80200000004000001F802000000040
:10938C004000001F80200000004000001F802000D3
:10939C0000004000001F80200000004010001F044F
:1093AC00000000084010001F0400000008400000EE
:1093BC001F04000000084000001F040000000840CB
:1093CC0000001F04000000084000001F87FFFFC1C1
:1093DC0007FE007C1F84010001000000001F8401B7
:1093EC000001000000001F84010001000000001FAC
:1093FC0084010001000000001F8020003FFFFFFFE0
:10940C0083FF80200000000000000080200000008E
:10941C000000000080200000000000000080200000
:10942C00000000000000FFFFFFFFFFFFFFFFFFFF3A
:10943C00FFFFFFFFFFFFFFFFFFFFFFFFFF840000A9
:10944C00000800000000401000000084000000082C
:10945C000000000040100000008400000008000024
:10946C000000401000000084000000080000000014
:10947C0040100000008400FFFF003FFFFE0043F09F
:10948C007C1FFF8020000000000040004000001006
:10949C000780200000000000400040000010078002
:1094AC002000000000004000400000100780200059
:1094BC000000000040004000001007FFE0003FFFEC
:1094CC00C00041F07FFF801F0780000000000008F3
:1094DC0000004000001007800000000000080000A1
:1094EC004000001007800000000000080000400051
:1094FC000010078000000000000800004000001071
:10950C000780010400002008020040000010070042
:10951C002004010020000200401000008700200001
:10952C000100000000004010000087002000010036
:10953C000000000040100000870020000100000027
:10954C000000401000008700200001000000020015
:10955C004010000087841F003F07FFF07E007FF063
:10956C007FFF078400000100000040000010001085
:10957C000784000001000000400000100010078468
:10958C0000000100000040000010001007840000E3
:10959C00010000004000001000100787FF07E1F8F1
:1095AC003FF801FFFE00001F0780000020000008AC
:1095BC0000000200000007800000200000080000EE
:1095CC0002000000078000002000000800000200DC
:1095DC0000000780000020000008000002000000CE
:1095EC0007FFFFFFFFFFFFFFFFFFFFFFFFFFFFFF77
:1095FC00FFFFFFFFFFFFFFFFFFFFFFF0FFFFFFFF7E
:10960C00FFFFFFFFFFFFFFFFF0FFFFFFFFFFFFFF6D
:10961C00FFFFFFFFFFF0FFFFFFFFFFFFFFFFFFFF5D
:10962C00FFFFF0FFFFFFFFFFFFFFFFFFFFFFFFF05C
:10963C00FFFFFFFFFFFFFFFFFFFFFFFFF0FFFFFF3D
:10964C00FFFFFFFFFFFFFFFFFFF0FFFFFFFFFFFF2D
:10965C00FFFFFFFFFFFFF0FFFFFFFFFFFFFFFFFF1D
:10966C00FFFFFFF0FFFFFFFFFFFFFFFFFFFFFFFF0D
:10967C00F0FFFFFFFFFFFFFFFFFFFFFC3FF0FFFFCF
:10968C00FFFFFFFFFFFFFFFFF83FF0FFFFFFFFFFB4
:10969C00FFFFFFFFFFF03FF0FFFC06011E7F1E3CAB
:1096AC008E73E07FF0FFFE0C210C3F8C388C23E096
:1096BC007FF0FFFF38708C3F8C398C07C0FFF0FFB8
:1096CC00FF3C30807FC0118907E1FFF0FFFE3E01B7
:1096DC00807FE183818FE7FFF0FFFFFFFFFFFFFF3C
:1096EC00FFFFFF87FFF0FFFFFFFFFFFFFFFFFFFF05
:1096FC00E7FFF0FFFFFFFFFFFFFFFFFFFFFFFFF0A4
:10970C00FFFFFFFFFFFFFFFFFFFFFFFFF0FFFFFF6C
:10971C00FFFFFFFFFFFFFFFFFFF0FFFFFFFFFFFF5C
:10972C00FFFFFFFFFFFFF0FFFFFFFFFFFFFFFFFF4C
:10973C00FFFFFFF0FFFFFFFFFFFFFFFFFFFFFFFF3C
:10974C00F0FFFFFFFFFFFFFFFFFFFFFFFFF0FFFF3B
:10975C00FFFFFFFFFFFFFFFFFFFFF0FFFFFFFFFF1C
:10976C00FFFFFFFFFFFFFFF0FFFFFFFFFFFFFFFF0C
:10977C00FFFFFFFFF0FFFFFFFFFFFFFFFFFFFFFFFC
:10978C00FFF0FFFFFFFFFFFFFFFFFFFFFFFFF000FA
:10979C0000000000000000000000000000000000BD
:1097AC0000000000000000000000000000000000AD
:1097BC00000000000000000000000000000000009D
:1097CC00000000000000000003F00000000000009A
:1097DC0000000000003FFF800000000000000000BF
:1097EC000007FFFFFC000000000000000000FFFF6E
:1097FC00FFFFE0000000000000000FFFFFFFFFFE76
:10980C0000000000000001FFFFFFFFFFFFF0000061
:10981C000000003FFFFFFFFFFFFFFF000000000301
:10982C00FF803FFFFF800000180000001FFF803FFB
:10983C00FFFF8000001F8000001FFF803FF000F042
:10984C000001FF8000001FFF803F00001FC01FFFB2
:10985C008000001FFF803E00F007C03FFF8000002B
:10986C001FFF803C03F803C03FFF8000001FFF80F8
:10987C003C03F803C03FFF8000001FFF803C01F059
:10988C0007C03FFF8000001FFF803E00000FC03F5D
:10989C00FF80000003FF803FC0007FC03FFC000042
:1098AC0000003FFFFFFFFFFFFFFFC00000000001B3
:1098BC00FFFFFFFFFFFFF80000000000000FFFFF9D
:1098CC00FFFFFF0000000000000000FFFFFFFFF0A3
:1098DC00000000000000000007FFFFFE0000000079
:1098EC000000000000003FFFC0000000000000006E
:1098FC0000000003FC00000000000000000000005D
:10990C00000000000000000000000000000000004B
:10991C00000000000000000000000000000000003B
:10992C00000000000000000000000000000000002B
:10993C00000000003E5B4F5B3E3E6B4F6B3E1C3E9F
:10994C007C3E1C183C7E3C181C577D571C1C5E7FB3
:10995C005E1C00183C1800FFE7C3E7FF0018241832
:10996C0000FFE7DBE7FF30483A060E262979292667
:10997C00407F050507407F05253F5A3CE73C5A7F51
:10998C003E1C1C08081C1C3E7F14227F22145F5FA7
:10999C00005F5F06097F017F006689956A606060E1
:1099AC00606094A2FFA29408047E040810207E201C
:1099BC001008082A1C08081C2A08081E1010101071
:1099CC000C1E0C1E0C30383E3830060E3E0E0600B7
:1099DC000000000000005F00000007000700147F7B
:1099EC00147F14242A7F2A122313086462364956E2
:1099FC0020500008070300001C2241000041221CDB
:109A0C00002A1C7F1C2A08083E08080080703000C1
:109A1C000808080808000060600020100804023ED6
:109A2C005149453E00427F40007249494946214117
:109A3C00494D331814127F1027454545393C4A4986
:109A4C0049314121110907364949493646494929C5
:109A5C001E000014000000403400000008142241D5
:109A6C001414141414004122140802015909063E5E
:109A7C00415D594E7C1211127C7F494949363E4159
:109A8C004141227F4141413E7F494949417F09097A
:109A9C0009013E414151737F0808087F00417F4115
:109AAC00002040413F017F081422417F404040404C
:109ABC007F021C027F7F0408107F3E4141413E7FA4
:109ACC00090909063E4151215E7F0919294626499B
