:02000002D0002C
:1040000000400D00A09D0D00000006000C00050101
:084010000401BD0B00000000DB
:04401800C8830D004C
:10401C0009480A49884208B505D0094A824202D0AB
:10402C00121A04F0E7F80748074A0021121A04F0A4
:10403C00EFF8014808BD00BFC0E40320049D0D004B
:10404C0034E5032034E50320F0E7032070B5074E78
:10405C00074C03F0B1F8A41BA4080025A54200D11D
:10406C0070BD56F8043B98470135F7E7D89C0D0016
:10407C00FC9C0D0000F0BCBD08B500F069FEBDE86D
:10408C00084003F05BB802F0BBBD02F0B9BD02F012
:10409C00BFBD000008B5034A00210C2002F004FD4E
:1040AC00FEE700BFA5670D000078B0FA80F040096C
:1040BC007047012303707047704710B510210446F8
:1040CC0003F06BFF204610BD37B50446084601913E
:1040DC0004F0D4F86368A268451CE818904208D82C
:1040EC00206801992A46184404F084F86068284432
:1040FC00606003B030BD000038B584690A4B0360C2
:10410C0005467CB16368013B63605BB9236820465C
:10411C009B689847A368013BA3601BB923682046A2
:10412C00DB689847284638BD249A0D000EB403B5B9
:10413C0003AB002153F8042B019302F056FF02B09D
:10414C005DF804EB03B0704773B50446084622795A
:10415C00A36832B1A3B90B4902B0BDE8704002F0BC
:10416C0009BF094A267B094D0949647B012E18BFFA
:10417C002946CDE900140749FFF7D8FF02B070BDFE
:10418C00054AEFE7ED830D002B840D00E9830D004C
:10419C00E5830D0003840D00DC830D000EB403B524
:1041AC0003AB012153F8042B019302F01EFF02B064
:1041BC005DF804EB03B0704708B502F0F5FA034B59
:1041CC001860BDE8084002F00BBD00BFD4E7032027
:1041DC0003682BB14268934202D2184603F0F4BF35
:1041EC000020704738B50568044645B143689D42C8
:1041FC0005D2284604F042F80130054425602046DB
:10420C0038BDF7B5D1E900361E44CDE90036044679
:10421C0015466F46009BB3420CD235B997E80300A4
:10422C0084E80300204603B0F0BD3846FFF7DAFF00
:10423C00013DEFE70023C4E90033F3E738B504464A
:10424C000B46D0E901012568044A091A284402F0FA
:10425C00E7FC636801300344636038BD20840D00C3
:10426C0038B504460B46D0E901012568044A091A01
:10427C00284402F0D5FC636801300344636038BD08
:10428C0023840D0073B5002268460D46FFF7B9FF75
:10429C006846FFF79DFF0122294604466846FFF752
:1042AC00B0FF6846FFF794FF054603F0ADF81949D7
:1042BC0002F060FE03F0A8F8002C064625DA2D214A
:1042CC0002F05CFE61420A22304602F070FE03F0FE
:1042DC009BF8114902F04EFE03F096F8002D0646AD
:1042EC0015DA2D2102F04AFE69420A22304602F00C
:1042FC005EFE304602F045FE084B1B781BB1084BA6
:10430C001D60084B1C6002B070BD2146DBE72946DE
:10431C00EBE700BF27840D002C840D00C8E50320BB
:10432C0048E6032044E6032008B5002343770068E1
:10433C0003F06CFBBDE8084002F0B8B92DE9F0437E
:10434C008F188FB0B942CDE90517064689469046BD
:10435C0080F0C28005A80D88FFF744FF03689F42D8
:10436C0040F2BA8005980378412B49D1013003F013
:10437C002BFF052837DDFF2447F276239D4200F002
:10438C00D38041D847F261239D4200F0A88047F2C8
:10439C0064239D426BD046F670539D4241D1784DBB
:1043AC00784EDFF8F4810598874240F295800378C7
:1043BC00412B4BD1013003F007FF052839DDFF24D9
:1043CC0005A8FFF70FFFDDF814902946484603F0C7
:1043DC004BFF014600283DD1204603F01FFD05A8E8
:1043EC00FFF700FFDFE70598013003F0EDFE002832
:1043FC00C1DB0598013003F0E7FE0E30C4B2BBE719
:10440C0005A8FFF7E5FEF9E747F264739D424FD02C
:10441C0047F276739D4200F0978047F261739D429C
:10442C006FD00023CDE9013302220092728B194622
:10443C003AE00598013003F0C7FE0028BFDB059871
:10444C00013003F0C1FE0E30C4B2B9E705A8FFF786
:10445C00BFFEF9E73146484603F006FF28B1414656
:10446C00484603F001FF0028B9D10121B4E70AAB9B
:10447C004549079307A810230025CDE90853FFF7FA
:10448C0023FE07A82146FFF7D9FE204603F0F0FCD7
:10449C00014607A8FFF7E4FE089BCDE90155013B57
:1044AC000093079B2A461421304600F097FA13E03C
:1044BC0005A8FFF797FE03689F420DD9A4B201210E
:1044CC00204603F0ABFC05A8FFF782FE011E18BFC7
:1044DC000121204603F0B3FC0FB0BDE8F0830AAB1A
:1044EC00079307A8102329490025CDE90853FFF7A6
:1044FC00EBFD07A82146FFF7A1FE204603F0CBFCFD
:10450C00C6E705A8FFF76EFE03689F42E4D9A4B284
:10451C000121204603F082FC05A8FFF759FE014655
:10452C00204603F0CFFCD7E720468DF8284002F058
:10453C00BFF803460AA823B1154A934201D0984705
:10454C00CAE702F0B1F8C7E705A8FFF74BFE059BD9
:10455C008DF81C40A3EB0901A8EB01012046CDE925
:10456C000A310C9102F0AEF803460AA907A823B150
:10457C00084A934201D09847AEE702F096F8ABE7B1
:10458C0033840D0036840D003E840D0041840D00F3
:10459C00B5660D00B7660D003A840D002DE9F041AB
:1045AC008CB004AF044605220068391D02F063FD8F
:1045BC00B8B3052804D000202037BD46BDE8F081F3
:1045CC00B7F80520130A43EA0223B7F80720A7F827
:1045DC00053099B2130A43EA02231FFA83F8A7F8AD
:1045EC0007300029E7D03B7923BB02F05BF8024689
:1045FC00E060607FB7F80730C0B9B7F80510012943
:10460C0014D1092B0FD0C82B01D0042BD4D10125E8
:10461C0062612046657700F08FFAFFF7CDFD02F05E
:10462C0045F80120C8E703236377C5E7581F18BF77
:10463C000120C1E7B8F5806F03D92046FFF774FE5F
:10464C00EFE708F1080323F007036E46ADEB030D0B
:10465C0004AD20684246294602F00DFD80454FF01E
:10466C0000007FD1B7F80730E85402F01BF83B7913
:10467C00E060142B00F0A68048D80F2B00F0A2802D
:10468C0007D8022B48D0062B51D02046FFF74CFE02
:10469C0058E0112BF9D100233B70B7F807302B44AD
:1046AC009D42C7E903534DD207F10C00D5F80080A9
:1046BC00FFF798FDFB68B7F807105D1B4D1BC7E9AA
:1046CC0005357B68FD61C3F30F236383644B984509
:1046DC0000F0BF8000F28C80A3F57F236FF4007292
:1046EC001344984500F09D8079D8A3F50033063B20
:1046FC00984500F09C8003F50033033398456BD14B
:10470C0007F11401384601F0D0FF65E0292B1BD0CE
:10471C00372B17D01D2BB8D1637F43B90123637797
:10472C00204600F009FAFFF747FD01F0BFFF002318
:10473C00C821B7F805200091CDE901331946204670
:10474C0000F04CF901200DE0A3681BB9402002F0E9
:10475C0057FAA060B7F80780A8444545C7E9055843
:10476C0002D30020B54627E729464022A06803F073
:10477C008DFDA368002583F83F5007F11400FFF767
:10478C0031FD036843451BD2786920B1BB6998425F
:10479C0014D203F01DFD85B2206803F037F92368AD
:1047AC00A2685A631D870023637701F07BFFA0F595
:1047BC009C500838C4E903006061C3E72846EAE767
:1047CC005025E9E77B68B7F80720C3F30F23638311
:1047DC0029462046FFF7B2FD00236383B2E7214B45
:1047EC009845F9D107F11401384601F05EFFF3E763
:1047FC001D4B984521D003F19F6303F5003303F55E
:10480C00807398451FD003F16E4303F5302303F5F5
:10481C0086739845E0D107F11401384601F045FF45
:10482C00DAE707F11401384601F03FFFD4E707F14E
:10483C001401384601F039FFCEE707F11401384670
:10484C0001F033FFC8E707F11401384601F02DFFE2
:10485C00C2E707F11401384601F027FFBCE700BF9F
:10486C00766673006462670061636F6E2DE9F041D8
:10487C0004468CB00D46FFF79FFC637F022B00F0C3
:10488C00A880237F628B0133DBB223770AB1012529
:10489C0016E0022BFBD8206802F0D7FEB8B125B980
:1048AC00206803F059F8002811DD2046FFF776FE4A
:1048BC0005460028F4D1206803F0A8F801F0F6FEB4
:1048CC00237F013B237728460CB0BDE8F08101F033
:1048DC00E9FE0646206802F0B8FE677F012F054608
:1048EC0029D120B966612046FFF71EFDE8E7E36891
:1048FC004FF21862F31A934204D92046FFF714FDC5
:10490C000025DDE74AF6C872934203D82369F31AEF
:10491C009342BCD9636941F27072F31A9342B6D9CF
:10492C000023CDE9013300931A460621204600F0FE
:10493C0055F86661ABE7002FA9D16269B21A40B194
:10494C0041F270739A42A2D9206803F05FF867773E
:10495C00D6E741F288339A4299D9206803F056F889
:10496C00D4F800C0DCF834E0BCF83880BEF1000F9D
:10497C000BD02B4642467146604603F0A5F8431E09
:10498C005D425D418DB966619AE7134B06930CF15C
:10499C0020070FCF07AD0FC53B682B7042467346FF
:1049AC0006A9604602F05DFFE9E7636805930126FE
:1049BC001846268303F062FC0022CDE90122059BF8
:1049CC00009032461D21204600F008F823696361EF
:1049DC0076E7002577E700BF54990D002DE9F04FDD
:1049EC0083B000AF044600683D6B88461646994676
:1049FC00EB4602F02AFE00287FD0B8F11D0F04D838
:104A0C004C4B23FA08F3DB0702D4637F012B74D1E0
:104A1C0046B9668B36B9238B01339BB2002B71D010
:104A2C002383268BA8F10C03082B16D8D4E9032377
:104A3C00934238BF134603F1420A01F033FEAAEB4E
:104A4C000000002860DB00212046FFF70FFF01F07B
:104A5C0029FEAAEB00000028F5DAB9F1000F5AD0B4
:104A6C006B1D7A6B002ABA6B08BF002203EB020A9B
:104A7C000AF1070323F00703ADEB030DBB6BC7F87B
:104A8C0004D0EA18C2F3072376BA43EA02238DF85E
:104A9C000080ADF80160ADF80330B9F1000F3CD0E7
:104AAC00002D3AD02A4649460DF1050003F0A2FB31
:104ABC00681D7B6B3BB1BB6B2BB11A467B68796B6A
:104ACC00184403F097FB002555452AD2AAEB0502A2
:104ADC007B682068B2F5806F28BF4FF4806259194B
:104AEC0002F09DFD0646002001F0DAFDBEB92068FB
:104AFC0002F08CFF667701F0D9FD0C37DD46BD4620
:104B0C00BDE8F08F01238BE7217F0029A5D120463A
:104B1C00FFF7ACFEA1E70523A3E70520C9E7354461
:104B2C00D2E703D02046FFF7FFFBE6E701F0BAFD22
:104B3C002061E2E74500002000B595B004AB0022EF
:104B4C000193492300930292034B1121FFF746FF77
:104B5C0015B05DF804FB00BF48850D002DE9F04150
:104B6C0015468CB00446043540F6B8300F469846CE
:104B7C0001F096FD0FCD01AE0FC62B683370676048
:104B8C0001F090FDA0F59C50083801AFC4E903007A
:104B9C0060610FCF07AE0FC63B68337007AF0FCF06
:104BAC0025684FF0000CC5F834C0A5F838802035C6
:104BBC000FC533682B70664644F24F67206802F0CD
:104BCC0025FF667701F06EFD0546637F012B0CD047
:104BDC0001F068FD401BB84204D800212046FFF7C5
:104BEC0045FEF2E7637F012BE8D10CB0BDE8F08104
:104BFC0000B58BB002F008FC4FF4165102F0F8FB34
:104C0C00164800F0A5FE154801F0D4F8134801F041
:104C1C0077FBA2230093AC22EA23A72104A802F07D
:104C2C007BFB42F2823304AA0D490E48FFF796FF34
:104C3C0004A801F05FFC10210DEB010001F067FCF2
:104C4C0004A9094801F0D0FC039002F0DDFB039AA3
:104C5C000649FFF7A3FA0BB05DF804FBCCE5032083
:104C6C0044840D0044E50320A0E5032065840D0079
:104C7C0037B52A4D2846002402F012FF05F11C001E
:104C8C0002F006FB264A6C632C872649284603F063
:104C9C007FF9254B2146C3E90054C3E90244C3E91B
:104CAC0004449C619C83012001F01EFF1F4C204892
:104CBC00204D072100F01EFE194A1F491C4803F025
:104CCC0067F90821204601F02BFC1C4B2360297846
:104CDC00BFF35B8F11F001010BD128460191FFF757
:104CEC00E3F9019928B1164801F0FEFF2846FFF7B9
:104CFC00E0F9134BE3600523124A2361002323756B
:104D0C00A2612377064A104B1049084823620123FD
:104D1C00A38403B0BDE8304003F03AB964E5032046
:104D2C0034E5032005410D0044E50320A0E50320F4
:104D3C00CCE5032038E50320CD580D00C4940D00BC
:104D4C003CE5032034850D008096980041640D00ED
:104D5C002DE9F04F002187B07D487E4D7E4CFFF74A
:104D6C0085FD7D4800F01DFEAA462B78002B32D124
:104D7C007A4C794DA3462378002B74D0764800F0FA
:104D8C0010FE754801F016F87348012100F091FDF2
:104D9C0000264FF00113C5E9046371496E4802F017
:104DAC00FCF870496C4802F0F8F86B4801F0A8FA6E
:104DBC00694800F00FFE10B16B4B26701E70284630
:104DCC0000F012FE0028D6D0674B01221A70002387
:104DDC008BF80030CFE7604800F0E3FD5E4800F050
:104DEC00E9FF5D48012100F064FD00264FF001133E
:104DFC00C4E904635D49584802F0CFF85C49564851
:104E0C0002F0CBF85B49544802F0C7F85A495248B3
:104E1C0002F0C3F8504801F073FA4F4800F0DAFD85
:104E2C0028B1564A2E70012313604C4A1370204649
:104E3C0000F0DAFD40B1514B02221A60474B0122BF
:104E4C001A7000238AF80030204600F0D7FD0028A5
:104E5C008BD04A4B03221A60404B01221A7000235C
:104E6C008AF8003081E7404BDFF830811B788BBB30
:104E7C00434D444C01F098FC2B68C01A63281DD993
:104E8C0001F092FC04A928603F4801F077FB002850
:104E9C003DD002F0B9FABDF914300093BDF91020E1
:104EAC00BDF912303949FFF779F9BDF9103023609B
:104EBC00BDF9123003F59673C8F80030D8F800200D
:104ECC0023684FF4FA6192FBF1F293FBF1F3C8F80B
:104EDC0000202360D8F800302D4D2E4C002B1CDD0B
:104EEC001D4F0026D8F80030B34216D92A68B4F901
:104EFC000010013A12B2384601F0C8F928B92B68F3
:104F0C00002BC4BF03F1FF332B600136EAE702F03C
:104F1C007BFA214902F041F8D0E71A4B1A68002AB3
:104F2C0099463DDD0C4F0026D9F80030B34237D9F5
:104F3C002168B5F90020013109B2384601F0A6F913
:104F4C0020B923687B2B1CBF013323600136EBE7B0
:104F5C0044E50320C0E40320CCE503204CE6032009
:104F6C00C6840D00ED840D00C8E5032075840D008A
:104F7C008B840D009E840D00B3840D0040E603204D
:104F8C003CE6032044E60320A0E5032010850D0039
:104F9C00C8E40320C4E4032019850D0048E603206F
:104FAC00D8F80030002B14DA4E4F00262A68B4F9DA
:104FBC000010013212B2384601F068F920B92B68A2
:104FCC001F2B1CBF01332B60D8F80030013EB342BD
:104FDC00ECDBD9F80030002B15DA424F00262168A3
:104FEC00B5F90020013909B2384601F04FF928B95A
:104FFC002368002BC4BF03F1FF332360D9F80030C2
:10500C00013EB342EBDB374F374E384600F0D2FE51
:10501C000121384600F04DFC4FF001137B61B5F9CE
:10502C000020B4F900100123384600F061FD33680C
:10503C00012B0AD1202002934923CDE90030002214
:10504C002A4B1921384600F0F1F93368022B0BD1A9
:10505C0020230121CDE90131492300932148244B20
:10506C000022192100F0E2F93368032B0BD1202325
:10507C000122CDE90132702300931A481D4B002206
:10508C000D2100F0D3F9174801F03AF9C82002F0CD
:10509C001BF823687B2B22D1124800F08BFE1148A1
:1050AC00012100F006FC00264FF0011312490D48B7
:1050BC00C7E9046301F071FF0A4801F021F941F2DC
:1050CC00883002F001F801238AF800300A238BF8AB
:1050DC00006023602B60C9F80060C8F8006007B05E
:1050EC00BDE8F08FCCE5032040E6032093850D004E
:1050FC00D3860D00F3870D0023850D002DE9F04FAD
:10510C0085B01F46BDF93880BDF83C30A8EB0209CC
:10511C00A7EB010AB9F1000FB8BFC9F10009BAF148
:10512C00000FB8BFCAF1000AD14583460C4615469C
:10513C0004DD3A462C4647460D469046BC4205DDFA
:10514C002A464546904622463C4617463E1BB2B27E
:10515C000092A8EB0502002AB8BF52420192C6F396
:10516C00C03202FA86F64545B4BF01224FF0FF3239
:10517C0076100292BC421CDCDBF800200393D14574
:10518C00D2F81880C7BF294622462A4621465846DF
:10519C00C047019A039BB61AB1B236B2002E05DA9B
:1051AC00029A1544009A56182DB236B2013424B224
:1051BC00E0E705B0BDE8F08F704710B404682469CF
:1051CC00A4465DF8044B604730B40468BDF8085041
:1051DC000295A46BA44630BC604730B40468BDF89B
:1051EC0008500295E46BA44630BC604770B4BDF91E
:1051FC000C50BDF810600468CDE90356246CA4462D
:10520C0070BC60472DE9F3411C460368BDF8208053
:10521C005B6905461646013C34440F4624B2984758
:10522C002B68CDF8048000949C6A28463B46324695
:10523C003946A0472B68DB6A284602B0BDE8F0412E
:10524C0018472DE9F3411D460368BDF820805B69C2
:10525C00044617460E469847CDE9007822686B1E27
:10526C003344956A20461BB23A463146A847236818
:10527C00DB6A204602B0BDE8F04118472DE9F34740
:10528C001E460368BDF928905B69BDF82C800C465E
:10529C000546174698472644B4422B680BDACDF8DE
:1052AC000080D3F820A021464B463A4628460134CC
:1052BC00D04724B2F0E7DB6A284602B0BDE8F047DD
:1052CC00184713B502680191B0F90E100091146CD7
:1052DC00B0F90C3000221146A04702B010BD2DE9E8
:1052EC00F3471D460368BDF82C805B69BDF9289017
:1052FC0004460F46164698472368CDF80080D3F82D
:10530C0024A032462B4639462046D0472368CDF898
:10531C00008009F1FF323244D3F824A039462B46E1
:10532C00204612B2D0472368CDF80080D3F820A0D5
:10533C0032464B4639462046D0476B1ED919236856
:10534C00CDF800801D6A20464B46324609B2A8476C
:10535C002368DB6A204602B0BDE8F0471847704767
:10536C002DE9F74399421646BDF92870BDF82C90EB
:10537C00026880460D461C4613D1BE42C8BF334658
:10538C00CDF82890C4BF3E461F467B1C946B9B1BDC
:10539C001BB2324629464046A44603B0BDE8F04352
:1053AC006047BE420AD19942C2BF0B4625461C46F5
:1053BC00631CCDF82890D46B5B1BE9E753699847C5
:1053CC00CDE90079D8F8003040469F6A3246234632
:1053DC002946B847D8F80030DB6A404603B0BDE830
:1053EC00F043184701F00303B0F90A208376C9078C
:1053FC00B0F9083059BF8381C2818281C381704763
:10540C0030B54281C281074A074D01810024818158
:10541C004FF0FF31C0E90512446005600461047768
:10542C00046230BD01010001BC8E0D002DE9F04F6E
:10543C0089B0CDE902120268BDF948800493BDF928
:10544C004C3052690593BDF850A00446904718F1B2
:10545C0007024FF0000648BF08F10E024FEAE20BBC
:10546C0001963546039B019ABDF904109A18059BC9
:10547C008B4212B227DD049B33444FF00009069394
:10548C000FFA89F080451FFA89F117DD4F0705BF28
:10549C00069BC0106D001D5C18BFEDB22B060AD523
:1054AC00029B206807921944836909B21F46204663
:1054BC005346B847079A09F10109E1E7019B01330B
:1054CC0001935E44CEE72368DB6A204609B0BDE851
:1054DC00F04F18472DE9F04F2DED028B91B0164689
:1054EC00026ABDF874809DF878509DF87C40039159
:1054FC001F46BDF8703004938346002A40F0C580E7
:10550C00B0F90C308B4240F34C81B0F90E30B34201
:10551C0040F34781062313FB0513002B40F3418115
:10552C0006EBC403002B40F33C81037F1BB9AF2F68
:10553C0084BF0137FFB2DBF8003058465B699847EF
:10554C000522099200220592984A07EB8703D3188B
:10555C000C93B3B20693059A0C9B9B5C0793ABB26E
:10556C000B93BDF80C300893039B02FB05F919FA59
:10557C0083F90FFA89F308EE103A08230A93039B78
:10558C0002EB030A4FF000090FFA8AFA079ADBF8CC
:10559C000030D20752D5012D1FFA89F23ED1012CD1
:1055AC003CD19B6906991F46049B0A4412B2514692
:1055BC005846B84709F101034FFA83F9079B5B087A
:1055CC0007930A9B013B13F0FF030A93DED1059F5F
:1055DC0001377BB20593099B013B13F0FF03099341
:1055EC00B9D1049B43450FD0012DDBF800303BD1E2
:1055FC00012C39D10899CDF8008005311C6A32464E
:10560C00082309B25846A047DBF80030DB6A58463D
:10561C0011B0BDEC028BBDE8F04F1847069914FB96
:10562C0002F20A44049901910094DB6918EE101AF5
:10563C001F4612B22B465846B847BBE7049A424560
:10564C00B8D0012D1FFA89F207D1012C05D19B6925
:10565C0006991F460A444346A8E70699CDF80480EC
:10566C0014FB02F20A44DFE70B9ACDF8048002EB3C
:10567C008201089AE4000A4411460094DC6932461F
:10568C002B4609B25846A047BEE7137A51681268F8
:10569C000D92FF1AFFB201EBC70331F837200692C7
:1056AC009A780992DA780B92012D93F9052093F9E7
:1056BC0006A00A9201D8012C57D9BDF928300893BD
:1056CC000FFA8AF30793DBF8003058465B6998476A
:1056DC00B3B24FF000080E931AFA86F3C146474650
:1056EC000F930B9B9F428FD2079B0E9A3B4403FB5D
:1056FC000423002205920F9A1BB202EB070A08EE54
:10570C00103A0FFA8AFA4346099A0599914241D206
:10571C005A1CD2B25B070C9207D1069B06990D9AC4
:10572C0001339BB212F80190069319F0800F12D03E
:10573C00012DDBF80030BDF80C101AD1012C18D15A
:10574C000A9A9B691144059A11441E465246049BC1
:10575C0009B25846B047059E0136F3B24FEA4909E3
:10576C0005935FFA89F90C9BCEE70023CDE907334B
:10577C00A9E70598089A024402FB0511049ACDE9A1
:10578C000042DB6918EE102A1E4609B22B46584619
:10579C00B047E0E7099B013798445FFA88F8FFB2FD
:1057AC009FE711B0BDEC028BBDE8F08FB3890D0003
:1057BC00F0B5026A85B004460B46002A34D10A299A
:1057CC0008D1438A0282427E03EBC203638201202A
:1057DC0005B0F0BD0D29FAD0E17E007E657E71B179
:1057EC00B4F91060062111FB0061B4F90C60B142F0
:1057FC00C1BFB4F91210228201EBC5026282E28AA7
:10580C000192A28A0092CDE90205B4F91220B4F9F2
:10581C0010102046FFF75EFE237E228A03EB430323
:10582C0002EB43032382D2E70A2907D10023038228
:10583C00937A417E428A01FB0323C7E70D29C6D028
:10584C00157AA942C3D3517A9942C0D351685D1BD2
:10585C00EDB201EBC505AF782FB3E97819B3E17E52
:10586C00007E667E91B195F905103944B4F910703B
:10587C0000FB0171B4F90C70B94207DD00272782D7
:10588C00B4F91210927A02FB06126282E28A019239
:10589C00A28A0092CDE90206B4F91220B4F91010D4
:1058AC002046FFF717FE2979237E228A01FB03236A
:1058BC00B8E7012938BF0121017641767047000015
:1058CC0010B5064B03600446006D08B100F07CFF78
:1058DC00204600F0F7F8204610BD00BF148F0D00D5
:1058EC0010B50446FFF7ECFF2046702102F055FB83
:1058FC00204610BD30B585B004460D4602F020FBA5
:10590C00104A1149CDE901214FF0FF3280210346A5
:10591C0000922046202200F05BF90C4B2360002300
:10592C00C4E9143504F1580000F072F804F1600079
:10593C0000F06EF804F1680000F06AF8204605B03B
:10594C0030BD00BF801A0600A0860100148F0D0028
:10595C0013B50446503000F02FFF636DD90705D501
:10596C000222042104F1580000F066F8636D9A07D6
:10597C0005D50022032104F1600000F05DF8636D91
:10598C005B0705D50222114604F1680000F054F8BB
:10599C00012300933C220221204600F019FA02B0A8
:1059AC0010BD10B5436DD907044602D5583000F030
:1059BC0050F8636D9A0703D504F1600000F049F8C4
:1059CC00636D5B0705D504F16800BDE8104000F07D
:1059DC0040B810BD436D024613F0010003D002F134
:1059EC00580000F066B87047436D024613F0020091
:1059FC0003D002F1600000F05CB87047436D0246C2
:105A0C0013F0040003D002F1680000F052B87047A4
:105A1C0000210A22C0E900127047002310B5044689
:105A2C00C171837188B202F023FA08B10323A37108
:105A3C0000F0BAFE206010BD38B50C460546114684
:105A4C00A0B202F0EBF921462846BDE83840FFF73A
:105A5C00E4BF38B50446C07902F00AFAA5790038DB
:105A6C0025F0080318BF0120C5F340058542A3713A
:105A7C000AD000F099FEA379206083F00203A37191
:105A8C00A079C0F3C00038BD00F08EFE2368C01AA8
:105A9C00A3889842F4D3A37903F00103AB42EFD06F
:105AAC0000F082FEA379206083F0010343F0080329
:105ABC00E5E7807900F00900A0F10803584258414D
:105ACC007047000010B5044B03600446C06A08B16F
:105ADC0001F09EF8204610BD0C940D0010B5044644
:105AEC00FFF7F0FF2046502102F057FA204610BD78
:105AFC00002910B54BDBB0F90C408C4247DD002A75
:105B0C0045DBB0F90E40944241DD847E022C1FD05F
:105B1C00032C26D0012C04D10489D24314440A4608
:105B2C0021B2012B23D0022B32D083BB002A134687
:105B3C000489C06AB8BFD31DDB1013FB041102F03B
:105B4C00070201239340425C22EA030242541EE006
:105B5C000489C94321444489D243224409B212B274
:105B6C00DFE74489C9430C44114622B2D9E7002A25
:105B7C0004891346B8BFD31DDB1013FB0411C36A91
:105B8C0002F0070001228240585C02435A5410BDB7
:105B9C00002A13460489C06AB8BFD31DDB1013FB5F
:105BAC00041102F00702012303FA02F2435C5A408B
:105BBC00CCE710B5044690F93600012180B202F012
:105BCC003EF9606A18B1BDE8104001F0BBB810BDD9
:105BDC0070B504461D460026FFF712FC114B2360DE
:105BEC00666215B902F0ACF90546FF2384F8333030
:105BFC0084F836309DF9103084F837300A4BA363A3
:105C0C00012384F83C30059BA3644FF6FF72069B7E
:105C1C00A286C4E90A562664A4F84460E3642046CC
:105C2C0070BD00BF0C940D0034850D00F8B5044612
:105C3C00806A0D4690B194F9301001F0D9FCA06A3D
:105C4C00036800219B689847A06A036829469B68F3
:105C5C009847A06ABDE8F84001F0D1BC94F9353002
:105C6C00014698B202F0EBF8606A20B12946BDE813
:105C7C00F84001F0EFB80826802794F9330005EAC4
:105C8C00070180B202F0DBF894F93400012180B2F4
:105C9C0002F0D5F894F93400002180B202F0CFF86C
:105CAC00013E4FEA5707E8D1F8BD38B50446806A83
:105CBC000D4680B1A16C01F08DFC002D204614BF67
:105CCC00A721A621FFF7B2FFA06A88B1E16CBDE85D
:105CDC00384001F07FBC606A18B104F1380101F062
:105CEC004BF894F93600002180B202F0A8F8E4E7F2
:105CFC002046BDE83840FFF75CBF2DE9F843044669
:105D0C00806A0D468F1840B394F9301001F070FC86
:105D1C00A06A036800219B6898470126BD42A06ACF
:105D2C0017D01F2E0CD901F06AFC94F93010A06A20
:105D3C0001F05EFCA06A036800219B68984701266D
:105D4C00A06A15F8011B036801369B689847F6B2E8
:105D5C00E4E7BDE8F84301F052BC94F93530014654
:105D6C0098B202F06CF8AF4222D0606A15F8019B31
:105D7C0018B1494601F06EF8F5E708264FF0800897
:105D8C0094F9330009EA080180B202F058F894F94A
:105D9C003400012180B202F052F894F93400002151
:105DAC0080B202F04CF8013E4FEA5808E8D1DAE72D
:105DBC00BDE8F883B0F90A30DA1D48BF03F10E02D2
:105DCC00B0F90830C06AD2105A43002102F020BA50
:105DDC002DE9FF411E46C36A9DF8288004460F46F4
:105DEC001546B3B12046FFF7E5FFB4F90A00B4F944
:105DFC00081020281FDC20230122CDE90132203895
:105E0C0073237339009300EBD070894B01EBD17184
:105E1C001FE0B0F90A30D81D48BF03F10E00B4F9E9
:105E2C000830C010584300F0EBFEE0620028D9D1D6
:105E3C0004B0BDE8F08140234FF0010CCDE9013CEA
:105E4C0052234038523900937A4B00EBD07001EB5F
:105E5C00D17140F34F0241F34F012046FFF7E6FAB0
:105E6C00A06A84F83170002878D0002D74D1B4F970
:105E7C000A30202B0CBF3C253D2584F83050B8F15E
:105E8C00000F01D001F0AAFBFEB194F937000028F5
:105E9C001BDB012180B201F0C1FF94F93700012115
:105EAC0080B201F0CCFF012001F00EF994F937001B
:105EBC00002180B201F0C3FF0A2001F005F994F92A
:105ECC003700012180B201F0BAFFA06A002874D01B
:105EDC00A16C01F07FFB042257492046FFF70DFF10
:105EEC00A17A0139C9B22046FFF7A0FE534904221A
:105EFC002046FFF702FF94F93130012B0CBF102123
:105F0C0014212046FFF792FE04224D492046FFF74C
:105F1C00F4FEA3684B4A93425CD14B4904222046C1
:105F2C00FFF7EBFED9212046FFF780FE94F93130C4
:105F3C00012B0CBF2221F1212046FFF777FE2046D2
:105F4C0042490622FFF7D9FEA06A002863D0E16C13
:105F5C0001F040FB01206BE76DB28EE794F9350040
:105F6C00012180B201F05AFF94F93600012180B270
:105F7C0001F054FF94F93600012180B201F05FFF6B
:105F8C00656A3DB1B8F1000F3FF47EAF284600F0D2
:105F9C00B5FE79E794F93300012180B201F03EFFA0
:105FAC0094F93400012180B201F038FF94F93400E7
:105FBC00294680B201F043FF66E7606A18B104F12C
:105FCC00380100F0D9FE94F93600002180B201F0BE
:105FDC0036FF80E71E4A93420ED11E49032220460B
:105FEC00FFF78BFE94F93130012B0CBF9F21CF2191
:105FFC002046FFF71BFE95E7174A934292D11749AB
:10600C0003222046FFF779FE94F93130012B0CBFA7
:10601C001021AF21ECE794F93600012180B201F098
:10602C000EFF606A002895D000F08CFE92E700BF4E
:10603C0024920D00648F0D006C940D0070940D0073
:10604C0074940D00800020007E940D0078940D0057
:10605C008000400082940D006000100085940D00BB
:10606C0070B5002ABDF810503DDBB0F90A409442DF
:10607C0039DD0029BEBF5B181BB20021B0F9084006
:10608C00CE18A642C4BF631A1BB2002B2BDDC06A0C
:10609C00D61014FB0611014402F0070001228240C5
:1060AC00012DD2B216D0022D0BD0E5B9D243D2B20B
:1060BC000B44994217D011F8010B104001F8010C58
:1060CC00F7E70B4499420ED011F8010B504001F840
:1060DC00010CF7E70B44994205D011F8010B104362
:1060EC0001F8010CF7E770BDF0B50029BDF814609C
:1060FC0076DBB0F90850A94272DA002ABCBFD2187C
:10610C0013B2B0F90A40B8BF0022D718A742C4BFD7
:10611C00A31A1BB2002B63DDC2F3C404C76A15FBC0
:10612C00041112F00702DBB207EB010423D0C2F119
:10613C000802D2B22C4D93423CBF4FF0FF0CA2EBA5
:10614C00030EAD5C3CBF4CFA0EFC0CEA0505012EAF
:10615C0007D0022E2ED04EB917F801C02CEA050537
:10616C0003E017F801C045EA0C057D54934237D380
:10617C00B0F908100C449A1AD2B2072A0ED9022E82
:10618C001DD113462178C9432170083BB0F9081082
:10619C00DBB2072B0C44F5D802F0070202B3134B09
:1061AC00012E9B5C19D0022E1BD0CEB9227822EA8C
:1061BC00030314E017F801C085EA0C05D5E7002E9F
:1061CC0014BFFF25002513462570083BB0F90810B5
:1061DC00DBB2072B0C44F7D8DEE72278134323708D
:1061EC00F0BD22785340FAE75C940D0064940D00E6
:1061FC0070B41446827EBDF80C60022A0DD0032ABE
:10620C0018D0012A11D10289E443144424B2039614
:10621C000A46214670BCFFF767BF42890589E443F3
:10622C0019441444691A24B209B20396224670BC6C
:10623C00FFF716BF45891944691A09B2E7E730B46C
:10624C001446827EBDF80850022A0DD0032A18D0BD
:10625C00012A11D1E2180489A41A24B202950A4623
:10626C00214630BCFFF7FCBE0289C9431144E21839
:10627C004489A41A09B224B20295224630BCFFF715
:10628C0033BF4289C943114409B2E7E7002930B54D
:10629C0034DBB0F90C308B4230DD002A2EDBB0F948
:1062AC000E3093422ADD837EB0F90850022B17D0B2
:1062BC00032B1DD0012B03D1D24353190A4619B21B
:1062CC00002A1346B8BFD31DDB1013FB0511C36A9C
:1062DC00585C02F0070240FA02F202F0010030BDF5
:1062EC004389C943D24329441A4409B212B2E7E79D
:1062FC004489C9430C44114622B2E1E70020EEE781
:10630C002DE9F8430446806A002842D0A16C01F0C4
:10631C0061F9474905222046FFF7EFFC217A013944
:10632C002046C9B2FFF782FCB4F90A30DE1D48BF23
:10633C0003F10E06D4E90A052389F61013FB06F6C1
:10634C0015FA86F600283AD094F9301001F050F97D
:10635C00A06A036840219B6898470127B542A06A50
:10636C0024D01F2F0CD901F04AF994F93010A06AEF
:10637C0001F03EF9A06A036840219B689847012709
:10638C00A06A15F8011B036801379B689847FFB298
:10639C00E4E7606A18B104F1380100F0EDFC94F9FF
:1063AC003600002180B201F04AFDB2E701F027F976
:1063BC00A06A78B3E16CBDE8F84301F00BB994F92D
:1063CC003500012180B201F03AFDB542F0D0606A8F
:1063DC0015F8019B18B1494600F03CFDF5E708277C
:1063EC004FF0800894F9330009EA080180B201F0FB
:1063FC0026FD94F93400012180B201F020FD94F9BE
:10640C003400002180B201F01AFD013F4FEA580818
:10641C00E8D1DAE794F93600012180B201F00FFDE2
:10642C00606A18B1BDE8F84300F08CBCBDE8F88395
:10643C0088940D00704710B52821044601F0ADFD7D
:10644C00204610BD10B5044600F11801C06800F0DC
:10645C0093FC208A0021BDE8104001F0F0BC10B57F
:10646C0004460121008A01F0EAFCE068BDE8104016
:10647C0000F068BCF8B51E4603685B690F4614460D
:10648C0005469847012E88BF47F04007E86847F05B
:10649C00800100F0DFFC2644B44206D0E8680021FD
:1064AC0000F0D8FC04F8010BF6E72B6828469B6932
:1064BC0098470120F8BDF8B51E4603685B690F4686
:1064CC00144605469847012E88BF47F04007E868F8
:1064DC00394600F0BFFC2644B44205D014F8011B29
:1064EC00E86800F0B7FCF7E72B6828469B699847EB
:1064FC000120F8BD0022027042708270C2700271DD
:10650C0042718271C271027242728272704757225A
:10651C00027040228270FF22C171427270470000EB
:10652C00024AC0E90021002202727047A8940D00B3
:10653C0013B5036801AADC680123A0479DF8040089
:10654C0002B010BD38B505460A240F212846FFF7C6
:10655C00EFFF33284FF0010004D000F0B5FD013CF3
:10656C00F3D1204638BD10B50446018AC06800F04E
:10657C00D6FB2046BDE81040FFF7E4BFF7B50C464C
:10658C0027210546FFF7D4FF00F00800002814BFB0
:10659C00012600261BD02B686A46DF6828210623BB
:1065AC002846B8479DF801209DF8003043EA0223A5
:1065BC0023809DF803209DF8023043EA0223638078
:1065CC009DF805209DF8043043EA0223A380304651
:1065DC0003B0F0BD13B503688DF804201C6901AA43
:1065EC000123A04702B010BD70B503689B68044638
:1065FC000D469847064630B900F006FF274900F0D3
:10660C00CCFC304670BD2A7820212046FFF7E2FFF3
:10661C006A7821212046FFF7DDFFAA782221204647
:10662C00FFF7D8FFEA7823212046FFF7D3FF2A791A
:10663C0024212046FFF7CEFF6A7925212046FFF75B
:10664C00C9FFAB791BB126212046FFF771FFAA7A4F
:10665C002E212046FFF7BEFFAB785B06D1D5EA7939
:10666C0032212046FFF7B6FF2A7A33212046FFF766
:10667C00B1FF6368002B0ADB6A7A22722046302154
:10668C00FFF7A8FF31212046FFF752FFB9E70022A0
:10669C00227230212046FFF79DFFB2E78D940D004A
:1066AC0000F012BD00F080B87047704770470000D2
:1066BC0003065ABF024B53F820000020704700BF5E
:1066CC00E0940D0003065ABF024B53F82000002043
:1066DC00704700BFE0960D0008B5024B1B689B6825
:1066EC00019308BD6802030008B5024B1B68DB6808
:1066FC00019308BD6802030008B5024B1B685B6878
:10670C00019308BD2C02030008B5024B1B689B6863
:10671C00019308BD2C02030008B5024B1B68DB6813
:10672C00019308BD2C02030008B5024B1B681B69C2
:10673C00019308BD2C02030008B5024B1B685B6972
:10674C00019308BD2C02030008B5024B1B689B6A21
:10675C00019308BD2C02030008B5024B1B681B6B90
:10676C00019308BD2C02030008B5024B1B689B6FFC
:10677C00019308BD2C02030008B5024B1B685B6932
:10678C00019308BD6C02030008B5024B1B685B68E3
:10679C00019308BD1802030008B5024B1B68DB68A7
:1067AC00019308BD1802030008B5024B1B685B6916
:1067BC00019308BD1802030008B5024B1B681B6B44
:1067CC00019308BD4802030008B5024B1B685B6BC4
:1067DC00019308BD4802030008B5024B1B685B6CB3
:1067EC00019308BD4802030008B5024B1B689B6C63
:1067FC00019308BD4802030008B5024B1B685B6996
:10680C00019308BD6402030008B5024B1B681B6AA8
:10681C00019308BD6402030008B5024B1B689B6A18
:10682C00019308BD6402030008B5024B1B681B688A
:10683C00019308BD3C02030008B5024B1B68DB68E2
:10684C00019308BD3C02030008B5024B1B681B6991
:10685C00019308BD3C02030008B5024B1B685B6941
:10686C00019308BD3C02030008B5024B1B689B69F1
:10687C00019308BD3C02030008B5024B1B68DB69A1
:10688C00019308BD3C02030008B5024B1B681B6A50
:10689C00019308BD3C02030008B5024B1B689B6AC0
:1068AC00019308BD3C02030008B5024B1B681B6832
:1068BC00019308BD2802030008B5024B1B68DB6876
:1068CC00019308BD2802030008B5024B1B689B69A5
:1068DC00019308BD2802030008B5024B1B68DB6955
:1068EC00019308BD2802030008B5024B1B681B6A04
:1068FC00019308BD2802030008B5024B1B685B6AB4
:10690C00019308BD2802030008B5024B1B689B6A63
:10691C00019308BD2802030008B5024B1B68DB6A13
:10692C00019308BD2802030008B5024B1B681B6BC2
:10693C00019308BD2802030008B5024B1B685B6B72
:10694C00019308BD2802030008B5024B1B681B6CA1
:10695C00019308BD2802030008B5024B1B689B6914
:10696C00019308BD3802030008B5024B1B68DB69B4
:10697C00019308BD3802030008B5024B1B681B6A63
:10698C00019308BD3802030008B5024B1B689B6AD3
:10699C00019308BD3802030008B5024B1B681B6B42
:1069AC00019308BD3802030008B5024B1B689B6BB2
:1069BC00019308BD3802030008B5024B1B681B6825
:1069CC00019308BD3002030008B5024B1B685B69DC
:1069DC00019308BD3002030008B5024B1B68DB694C
:1069EC00019308BD3002030008B5024B1B681B6AFB
:1069FC00019308BD3002030008B5024B1B685B6AAB
:106A0C00019308BD3002030008B5024B1B68DB6B19
:106A1C00019308BD3002030008B5024B1B681B6CC8
:106A2C00019308BD3002030008B5024B1B685B6C78
:106A3C00019308BD3002030008B5024B1B681B68AC
:106A4C00019308BD4C02030008B5024B1B685B6840
:106A5C00019308BD4C02030008B5024B1B681B696F
:106A6C00019308BD4C02030008B5024B1B685B691F
:106A7C00019308BD4C02030008B5024B1B689B69CF
:106A8C00019308BD4C02030008B5024B1B68DB697F
:106A9C00019308BD4C02030008B5024B1B681B6A2E
:106AAC00019308BD4C02030008B5024B1B685B6BDD
:106ABC00019308BD6002030008B5024B1B681B6DF7
:106ACC00019308BD6002030008B5024B1B685B68AC
:106ADC00019308BD2002030008B5024B1B685B69DB
:106AEC00019308BD2002030008B5024B1B68DB6A4A
:106AFC00019308BD2002030008B5034B1B68D3F8B3
:106B0C008830019308BD00002002030008B5034B38
:106B1C001B68D3F89430019308BD000020020300D9
:106B2C0008B5024B1B685B68019308BD400203006B
:106B3C0008B5024B1B689B68019308BD400203001B
:106B4C0008B5024B1B68DB68019308BD40020300CB
:106B5C0008B5024B1B681B69019308BD400203007A
:106B6C0008B5024B1B685B69019308BD400203002A
:106B7C0008B5024B1B689B69019308BD40020300DA
:106B8C0008B5024B1B68DB69019308BD400203008A
:106B9C0008B5024B1B681B6A019308BD4002030039
:106BAC0008B5024B1B681B6B019308BD4002030028
:106BBC0008B5024B1B685B6B019308BD40020300D8
:106BCC0008B5024B1B681B6C019308BD4002030007
:106BDC0008B5024B1B685B6C019308BD40020300B7
:106BEC0008B5024B1B689B68019308BD4402030067
:106BFC0008B5024B1B68DB6B019308BD4402030014
:106C0C0008B5024B1B681B68019308BD1C020300EE
:106C1C0008B5024B1B685B68019308BD1C0203009E
:106C2C0008B5024B1B68DB69019308BD1C0203000D
:106C3C0008B5024B1B685B6A019308BD1C0203007C
:106C4C0008B5024B1B68DB6B019308BD1C020300EB
:106C5C0008B5024B1B685B6C019308BD1C0203005A
:106C6C00002240681146FFF793BF0022406811468E
:106C7C00FFF79EBF40680022FFF792BF40680022DA
:106C8C0081F00101FFF77CBF002340681A461946CA
:106C9C00FFF76EBF002340681A461946FFF760BF26
:106CAC00002240681146FFF753BF0022406811468E
:106CBC00FFF73EBF406800220221FFF741BF0023CF
:106CCC0040681A46FFF72CBF024B03225A60024A57
:106CDC001A60704750E60320E8980D000021FFF77A
:106CEC009BBE0021FFF7A0BE10B5044608462170DC
:106CFC00FFF772FE00236360204610BD10B50446FA
:106D0C000078FFF7EBFF48B920784FF6FF71FFF7DB
:106D1C0053FE2078BDE81040FFF7E3BF10BD13B55C
:106D2C00044600780191FFF7D9FF019940B920780A
:106D3C00FFF742FE207802B0BDE81040FFF7D1BF4C
:106D4C0002B010BD0078FFF7CCBF0000400830B592
:106D5C001860002418688842E5B206D90134082C62
:106D6C0002D040081860F5E70725024B5B5D1370F5
:106D7C0030BD00BF1C990D002DE9F04306468FB0C5
:106D8C0000780C46FFF7AAFF00281BDB357814228D
:106D9C00002109A801F03CFA0B23002209A928467E
:106DAC00ADF82430FFF728FE9DF82D3013B19DF877
:106DBC002C5055B10027B946B846012523795DB151
:106DCC00C3B100200FB0BDE8F083DDF830809DF832
:106DDC0034909DF83570F1E7002B35D1A36843450D
:106DEC0008D18DF820908DF82170BDF82020A38952
:106DFC009A42E6D00023A1688DF80F300A9804ABB4
:106E0C000DF10F02FFF7A2FF217985B989B9A368AB
:106E1C0043450ED38DF820908DF82170BDF82020BD
:106E2C00A3899A4205D1049B434502D1C9E70029A5
:106E3C00F9D100230193637B00939DF80F20237BF2
:106E4C003078FFF7E1FDBCE7CDE900552B462A462B
:106E5C000121F5E708B50078FFF7B6FDC0B208BD13
:106E6C0010B50446006818B1FFF7D2FE002323606A
:106E7C0010BD10B50446FFF7F3FF204610BD00000F
:106E8C0010B5094B094C022200201A60084B2060F7
:106E9C00A080A071A360FFF717FE2046054A0649A3
:106EAC00BDE8104001F074B864E6032058E60320F6
:106EBC000000FFFF34E503207F6E0D0070B586B037
:106ECC00064601AD684600F033FA0FCD341D0FC4F1
:106EDC002B682370304606B070BD10B504460068B0
:106EEC0008B1FFF781FC204610BD10B5836804463D
:106EFC0013B1032201469847204610BD10B5064C2D
:106F0C00002320462360FFF767FC2046034A044910
:106F1C00BDE8104001F03CB868E6032034E50320DE
:106F2C00E76E0D00F8B506460D468F180024BD42DD
:106F3C000CD0336815F8011B9B6830469847031E2C
:106F4C0001DB1C44F3E7002C08BF1C462046F8BDAF
:106F5C0013B50446084659B1019101F08FF9236825
:106F6C000199DB680246204602B0BDE81040184784
:106F7C0002B010BD08B5FFF7EBFF08BD03689B68B6
:106F8C00184738B50D210546FFF7F8FF0A210446CE
:106F9C002846FFF7F3FF204438BD38B50546FFF708
:106FAC00D7FF04462846FFF7ECFF204438BD30B528
:106FBC008BB000238DF82430012A98BF0A2209AC2B
:106FCC000D46B1FBF2F101FB125303F0FF03092B49
:106FDC0094BF30333733DBB2AA4204F8013DEFD90A
:106FEC002146FFF7B5FF0BB030BD2DE9F04186B05F
:106FFC0000AF05460E46381D142114463B60FFF7C2
:10700C0017FE13280ED8391D2846FFF7A1FF04469A
:10701C001EB12846FFF7B5FF044420461837BD467D
:10702C00BDE8F08100F1080323F00703E846ADEB5F
:10703C00030D2246411C3B686846FFF7F9FD694683
:10704C002846FFF785FF0446C546E1E710B5044620
:10705C00FFF7AAFBE060236820465B69984700288D
:10706C0008DAFFF7A1FBE368C01AA3689842F2D3D1
:10707C004FF0FF3010BDF8B506460D4617460024FC
:10708C00BC4207D03046FFF7E1FF031E02DB2B5555
:10709C000134F5E72046F8BD002340681A4619462E
:1070AC00FFF75EBD014B024A1A6070476CE6032085
:1070BC002C990D00024B1A68024B1A60704700BFE6
:1070CC00CCE4032070E603200021FFF705BD10B5CA
:1070DC000446FFF70AFF204610BD00000348044A8F
:1070EC0004490023836000F053BF00BF74E6032003
:1070FC0034E50320DB700D00014B1860704700BFB6
:10710C00D0E4032008B50B4B43B100F07DF90368C4
:10711C001B699847002801DDAFF30080064B43B193
:10712C0000F0F0F903681B699847002801DDAFF304
:10713C00008008BD000000000000000008B5FFF74B
:10714C00E1FFFFF731FB014B186008BDD4E70320CA
:10715C000248034A0349121A01F04CB800F4032008
:10716C0004F40320009D0D0007B5002300931A467C
:10717C006FF07701FFF7CAFC03B05DF804FB000069
:10718C0007B543880A2B08D0502B0BD1094B1B6831
:10719C004BB103B05DF804EB1847FFF7E5FF03B004
:1071AC005DF804FB002300931A466FF07701FFF79C
:1071BC00ADFCF4E788E6032038B5124C1248134DA9
:1071CC000021FFF745FD2368AB42114B0CBF012298
:1071DC0000221A7002D0FFF7BBFF2560FFF7D4FA2C
:1071EC00044601F01DF80B4B13B12046AFF30080A1
:1071FC0000210848FFF7FCFCBDE838400648002198
:10720C00FFF77ABC00F4032005710D001E1C279AB1
:10721C0084E60320000000008D710D00704710B54E
:10722C001821044600F0B9FE204610BDF0B5037DD0
:10723C00062B8DB00E4600F104074FF0000412D05F
:10724C0000F1080515F8011D0A223046FFF7AFFEC4
:10725C00AF42044419D0002CF4D02E213046FFF755
:10726C008DFE0444EEE72F236A4639460A208DF83A
:10727C000040FFF7C1FA684601F000F83368024697
:10728C00DB68694630469847044620460DB0F0BD91
:10729C0010B5054B0446112240F8043B002100F0C8
:1072AC00B7FF204610BD00BF54990D000346074A96
:1072BC0010B543F8042B01F1100251F8044B43F8BC
:1072CC00044B9142F9D10A781A7010BD54990D00F3
:1072DC00037D042B04D14068003818BF012070478F
:1072EC00062B07D143683BB983682BB9C3681BB91C
:1072FC000069F1E7002070470120704710B59DF838
:10730C00084044EA032343EA024242EA01610423AF
:10731C004160037510BD000037B5044D05609DF844
:10732C0018500095FFF7EAFF03B030BD54990D00DB
:10733C0013B5054B0360CB7800938B784A780978AA
:10734C00FFF7DCFF02B010BD54990D00417470477B
:10735C00704708B50021007CFFF78EFB40EAE07017
:10736C0008BD08B50121007CFFF786FB40EAE07000
:10737C0008BD08B5007CFFF777FB20EAE07008BD7C
:10738C0008B5007CFFF768FB20EAE07008BD13B578
:10739C000446007C0191FFF767FB0028019901DC92
:1073AC00607C20B1207CFFF76FFB20EAE07002B01C
:1073BC0010BD007CFFF770BB10B51421044600F023
:1073CC00ECFD204610BD000010B54FF47A73044656
:1073DC0008460021C4E90113044B236001232074E7
:1073EC0063741146FFF728FB204610BD68990D0009
:1073FC00007C0022FFF728BB10B5142204460021A4
:10740C0000F006FF204610BD10B5104C88B003A844
:10741C00FFF7F2FF2178BFF35B8F11F0010111D15F
:10742C0020460191FCF740FE019958B103AA084887
:10743C00FFF7CAFF2046FCF73CFE064A0649044803
:10744C0000F0A6FD024808B010BD00BF8CE603207A
:10745C0090E6032034E503205D730D007047417402
:10746C00704708B5007CFFF717FA20EAE07008BDFA
:10747C0008B5007CFFF7E8F920EAE07008BD08B514
:10748C00007CFFF7F1F940EAE07008BD08B5007C1C
:10749C00FFF7E2F940EAE07008BD007CFFF7ECB9B9
:1074AC0037B5457C04462DB1207C03B0BDE8304097
:1074BC00FFF7C2B9007C0191FFF7EEF900280199A2
:1074CC00F2DC284603B030BD10B51421044600F0A0
:1074DC0064FD204610BD000010B54FF0000C0446B2
:1074EC00084611464FF47A72C4E901C2044A22607C
:1074FC000122207462741A46FFF796F9204610BDDB
:10750C0098990D0013B50E4C2178BFF35B8F11F0D9
:10751C00010112D120460191FCF7C6FD019960B121
:10752C00084A094B0948FFF7D7FF2046FCF7C1FD75
:10753C00074A0849054800F02BFD044802B010BD6D
:10754C00A4E60320A8E603202CE70320B0E70320E1
:10755C0034E5032069740D007047F8B506461546EE
:10756C000C468F18BC4206D0336814F8011B9B687C
:10757C0030469847F6E72846F8BD007C0022FFF716
:10758C00B3B9007C0021FFF7B7B9007C0021FFF7ED
:10759C00BBB9007C0021FFF7BFB9007C0021FFF7CD
:1075AC00C3B910B51421044600F0F7FC204610BDF9
:1075BC0010B54FF47A73044608460021C4E9011350
:1075CC00034B236020741146FFF7BEF9204610BD13
:1075DC00C8990D00007C0022FFF766B90023007CDF
:1075EC001A461946FFF768B9007C0022FFF76CB900
:1075FC00C9B2FFF7F9BF007C0022FFF76DB901217A
:10760C00FFF7F9BF13B503688DF80710DC6B012287
:10761C004FF0FF330DF10701A04702B010BD10B4BD
:10762C000368DC6B4FF0FF33A4465DF8044B6047F6
:10763C0013B5134602688DF80710D46B0DF10701D2
:10764C000122A04702B010BD704738B543691A68D3
:10765C00002A054610DAB3F88620B3F884309A4233
:10766C000AD103681B699847044628B92B68284639
:10767C00DB6A9847204638BD0120FCE7436918684F
:10768C00C043C00F70477047064B994210B500F1CC
:10769C000C0405D0084600F085FC002808BF002427
:1076AC00204610BD24990D0010B5AC21044600F005
:1076BC0074FC204610BDFCF7EABC2DE9F0414FF0FC
:1076CC00000886B01D46C0F8048004460E461746D6
:1076DC004146102202A800F09BFD6B1C09D04FF410
:1076EC007A70B5FBF0F3CDE9023800FB1353584325
:1076FC000490606910230093006802AB41F205020C
:10770C0040F6FF71FFF728F9002807DAFFF798FA1F
:10771C0003686360002006B0BDE8F0816069002357
:10772C0000683A463146FFF737F9031EEEDB184680
:10773C00F1E7000038B584690A4B036005467CB15B
:10774C006368013B63605BB9236820469B6898477C
:10775C00A368013BA3601BB923682046DB689847EC
:10776C00284638BD249A0D0010B50446FFF7E2FFF9
:10777C0020461C2100F011FC204610BD70B54D694F
:10778C00054B04468C3544F8043B06460FCD0FC41C
:10779C002B682370304670BD54990D0010B54369A9
:1077AC00B3F88620B3F884309A42044605D0636956
:1077BC00B3F884201344187910BD03681B699847EB
:1077CC000028F4D14FF0FF30F6E710B54369B3F859
:1077DC008620B3F884309A42044608D06369B3F823
:1077EC008420511CA3F884101344187910BD03682D
:1077FC001B6998470028F1D14FF0FF30F6E7F8B538
:10780C0043691746B3F88620B3F884309A4205468C
:10781C000E4616D06969B1F88430B1F88640E41A86
:10782C00BC4228BF3C46043322461944304600F083
:10783C00E1FC6A69B2F884302344A2F88430204613
:10784C00F8BD03681B6998470028E3D14FF0FF345B
:10785C00F5E742690023A2F884304269A2F8863029
:10786C0070472DE9F0411F4603680C46DB6A8AB06D
:10787C00054616469847237DD5F81480042B0CBF7B
:10788C0002200A2006220121FFF78EF8C8F800001A
:10789C006B691B68002B08DA2B682846DB6A00240E
:1078AC00984720460AB0BDE8F0812846FFF7D1FF83
:1078BC00B7B1002303A9F8B20393ADF81030FEF76B
:1078CC005BFF0028E8D1686906230093006803ABCE
:1078DC0041F20B0240F6FF71FFF73EF80028DBD1B6
:1078EC001C22002103A800F093FC237D042B1DD146
:1078FC004FF407733046ADF80C30FEF78DFFADF842
:10790C000E006068FEF780FF04906B691C221868FB
:10791C0003A9FFF731F80028BED104340FCC6D69F0
:10792C008C350FC523682B700124BAE740F61C2355
:10793C003046ADF80C30FEF76FFF05AEADF80E001B
:10794C00231D04F1140718685968324603C2083322
:10795C00BB421646F7D1D8E730B54269B2F886304B
:10796C008BB004462BB1B2F884209A4201D1FFF7B8
:10797C0070FF61690868002818DBB1F886507F2D0C
:10798C0014D804310823C5F180022944FEF7FCFF0A
:10799C00002813DD6369B3F886200AB9A3F88420A4
:1079AC006369B3F886201044A3F886006369B3F8C2
:1079BC008600B3F88430C01A0BB030BDFFF740F925
:1079CC0003680B2BF2D0FFF73BF903680B2BEDD0C0
:1079DC0020230025CDE90235FFF732F90368019326
:1079EC00084B0949009302AA2B463220FFF764F892
:1079FC0063691868FEF7B8FF63694FF0FF321A60CD
:107A0C00D4E700BFEF990D00E8990D0010B543695C
:107A1C0004461868002801DBFEF7A6FF63694FF0E7
:107A2C00FF321A606069112200218C3000F0F0FBEB
:107A3C002046BDE81040FFF70CBF10B500230446EC
:107A4C000160C0F884308830FFF722FC204610BD5E
:107A5C0073B500234FF47A72C0E901320E4A036108
:107A6C00026043610446AC200191FCF70CFB051E3F
:107A7C0005F10C0608D00123C5E90133074B019928
:107A8C002B603046FFF7D9FF2046C4E90565FFF7A8
:107A9C00E0FE02B070BD00BF249A0D00089A0D00E4
:107AAC0010B54FF0FF310446FFF7D2FF204610BD52
:107ABC0010B504460068002801DBFEF755FF204690
:107ACC0010BD0C30FFF7F4BF2DE9F0439846036866
:107ADC0093B00D460024DB6A0646174698472846A5
:107AEC006B46224621460094FEF7FEFD0546002813
:107AFC0063D1009B002B4BD05B69002B48D006A8B0
:107B0C00FFF7C6FB009B5C696378022B04D1211D37
:107B1C0006A8FFF7D3F926E00A2B24D11122294617
:107B2C0001A800F075FBA368002B38D004F1080302
:107B3C000DF1040C183418685968624603C20833F6
:107B4C00A3429446F7D1062301A90CA88DF8143052
:107B5C00FFF7ACFB0DF1340CBCE80F0007AC0FC405
:107B6C00DCF80030237006A8FFF7B2FB80B1336855
:107B7C0007ADD3F82090124B0C930FCD0DAC0FC466
:107B8C002B6823703A4643460CA93046C847054635
:107B9C000098FEF7A1FD284613B0BDE8F083E3681A
:107BAC00002BC3D14FF6FF70D4F81090FEF72CFECB
:107BBC008145BBD104F11401AAE72546E8E700BFD3
:107BCC0054990D00002240681146FEF7C1BF0022F7
:107BDC0040681146FEF7DCBF002240681146FEF7F4
:107BEC00E7BF40680022FEF7DBBF4068002281F04F
:107BFC000101FEF7C5BF002340681A461946FEF77F
:107C0C00B7BF002240681146FEF792BF40680022C1
:107C1C000221FEF795BF002340681A46FEF780BF8D
:107C2C00024B04225A60024A1A607047C4E70320D0
:107C3C00709A0D00002340681A46FEF771BF406829
:107C4C0000220221FEF77CBF002240681146FEF79D
:107C5C006FBF002240681146FEF77ABF00234068D0
:107C6C001A461946FEF77CBF002340681A4619468F
:107C7C00FEF77EBF40680021FEF7A2BF40680021DE
:107C8C00FEF7A6BF4068002281F00101FEF778BF25
:107C9C0040680022FEF784BF002240681146FEF7C0
:107CAC0087BF002240681146FEF772BF2DE9F043F2
:107CBC00002495B016460D460746FFF7E9FA214613
:107CCC0018220EA8009400F0A3FA4023CDE90C343E
:107CDC0021466B460CAA3046FEF706FD04460028EA
:107CEC004CD1024601216868FEF732FF0221804622
:107CFC0022466868FEF72CFF009E81462146002E26
:107D0C003CD000293AD17368022B03D00A2B11D036
:107D1C00F669F4E7B8F1000F0AD0716906A80431CE
:107D2C0007ADFFF705FB0FCD3C1D0FC42B6823706F
:107D3C004146EDE7B9F1000F01D14946E8E7746916
:107D4C00102201A800F064FA06238DF8143001AD5E
:107D5C0004F108031834186859682A4603C208331A
:107D6C00A3421546F7D101A906A807ADFFF79EFA65
:107D7C000FCD3C1D0FC42B682370DEE70098FEF777
:107D8C00ABFC384615B0BDE8F0830000024B034A4B
:107D9C001A6000225A607047CCE70320AC9A0D00A1
:107DAC00232813B502D9002002B010BDA0F10B039B
:107DBC00022B1AD8174C2178BFF35B8F11F00101FD
:107DCC000BD120460191FCF76FF9019928B11248AB
:107DDC00FEF78AFF2046FCF76CF90F4B1878FEF77C
:107DEC0003FE0028DFD10120DEE7012809D800F0CE
:107DFC00A7F80021007CFEF79FFD80F00100C0B2C7
:107E0C00D2E709380128EED8FFF77CFB007CFEF79F
:107E1C003BFDF2E738E503203CE50320232838B589
:107E2C0004460D460AD8FF2908D0FFF7B9FF28B140
:107E3C0029462046BDE83840FEF766BC38BD38B54B
:107E4C0004460D46FEF768FCFF2810D0062804D81F
:107E5C004D2323FA00F0C30709D42046FFF7A0FFF7
:107E6C0028B129462046BDE83840FEF75DBC38BD38
:107E7C0010B50446FEF750FC031FDBB2012B08D9EA
:107E8C002046FFF78DFF20B12046BDE81040FEF7DD
:107E9C0053BC002010BD0D2810B504469CBF0E34F9
:107EAC00A4B22046FFF77CFF50B103212046FEF719
:107EBC0023FC032804D12046BDE81040FEF74CBC3F
:107ECC00002010BD38B504460D46FFF769FFF0B130
:107EDC0004212046FEF710FC042805D1A9B2204647
:107EEC00BDE83840FEF730BC02212046FEF704FC0A
:107EFC0002280CD12046FEF70FFC012801D00428E3
:107F0C0005D129462046BDE83840FEF72DBC38BDCA
:107F1C0038B5002320254380142304460380856054
:107F2C0005610649284600F03AF804496060284685
:107F3C0000F035F8E060204638BD00BFE09A0D0037
:107F4C0030B50F4D2978BFF35B8F11F0010487B06A
:107F5C0013D12846FCF7A8F878B101A8FFF7D8FF91
:107F6C0001AA21460748FFF723FB2846FCF7A1F896
:107F7C00054A0649034800F00BF8024807B030BD2B
:107F8C00D8E70320DCE7032034E5032065750D00FA
:107F9C000B460146184600F01FB9FCF778B8FCF701
:107FAC0074B80000014900F0F9B800BFFC9A0D004C
:107FBC007FB500241023CDE90234036800949E6938
:107FCC008DF8044015466B461268B0479DF8043096
:107FDC0003F00603062B03BF009B2B6001202046F9
:107FEC0004B070BD0098904214BF01200620704769
:107FFC0010B5034B0360044600F0CDF8204610BDCD
:10800C003C9B0D0010B50446FFF7F2FF20460821FB
:10801C00FFF7C3FF204610BD2DE9F0411F46DDE9F7
:10802C000834DDF8188098450646154607D107999F
:10803C0000F0B4F818B165710020BDE8F081394644
:10804C00304600F0ABF80028F6D00123C4F80080CD
:10805C002571A371F0E738B515461C4600F09EF863
:10806C0020B10823E36006232560237138BD73B566
:10807C0005460C4601921E4600F090F850B9032EAE
:10808C0008D82368019A5B692946204602B0BDE8EE
:10809C007040184702B070BD10B5034B0360044626
:1080AC00FFF7A6FF204610BD9C9B0D0010B50446A3
:1080BC00FFF7F2FF20460C21FFF76FFF204610BDA3
:1080CC00F7B5089F974205460E4614460AD0A86895
:1080DC0002680897156A31462246AC4603B0BDE8E3
:1080EC00F04060471946019300F058F8019B0028B6
:1080FC00EDD0062003B0F0BD2DE9F14F0D46194629
:10810C00DDE90A4BDDE90CA681461746984600F0DE
:10811C0045F890B1002D3460377109DB61198A453F
:10812C000CBF06210121B171002001B0BDE8F08F18
:10813C000235F9D10123B371F6E7544506D15946FE
:10814C00484600F02BF808B17771EDE7D9F8080034
:10815C000368CDE90CA6CDE90A4BDC693A464346E7
:10816C002946A44601B0BDE8F04F60472DE9F04127
:10817C0007460C4615461E46FFF76DFF48B9B86812
:10818C0003689F692A4633462146BC46BDE8F04148
:10819C006047BDE8F081704700207047814208B508
:1081AC000ED0406803782A2B0CD049680B782A2B08
:1081BC0008BF013100F058F8B0FA80F0400908BD52
:1081CC000120FCE70020FAE70A22002100F0ECB8BD
:1081DC000A22002100F0E8B810B5054C13462CB16A
:1081EC000A4601460220AFF3008010BD2046FCE792
:1081FC00000000000A44914200F1FF3300D17047A7
:10820C0010B511F8014B03F8014F9142F9D110BD93
:10821C0002440346934200D1704703F8011BF9E76F
:10822C0038B50D4B1D68AB6B04467BB91820FEF7B7
:10823C00E7FC0A4A0A4BA863C0E90023094B836098
:10824C000B23838101220023C0E90423AB6B0022A2
:10825C001C615A6138BD00BFD0E403200E33CDAB96
:10826C0034126DE6ECDE050010F8012B11F8013B21
:10827C00012A28BF9A42F7D0D01A7047034613F848
:10828C00012B002AFBD1181A0138704710B501399F
:10829C00034632B111F8014F03F8014B013A002C9F
:1082AC00F7D11A440021934200D110BD03F8011BF1
:1082BC00F9E700002DE9F0473A4E86468C466046B9
:1082CC001CF8014BA55D15F00805F8D12D2C33D108
:1082DC009CF800404FF0010800F1020C002B5CD020
:1082EC00102B0CD1302C0AD19CF8000000F0DF00D0
:1082FC0058284DD19CF8014010230CF1020C08F1C8
:10830C000047013F0026B7FBF3F9304603FB197A0F
:10831C00A4F13005092D18D82C46A34224DD751C78
:10832C0007D081451DD301D1A2451ADB00FB0340C8
:10833C0001261CF8014BEBE72B2C08BF9CF80040E6
:10834C00A84608BF00F1020CC8E7A4F14105192D9D
:10835C0001D8373CE1E7A4F16105192D04D8573C4D
:10836C00DBE74FF0FF36E4E7731C06D12223CEF88F
:10837C000030384642B9BDE8F087B8F1000F00D0A4
:10838C004042002AF7D00EB10CF1FF311160F2E738
:10839C003024002BB3D10823B1E7302CA4D00A230E
:1083AC00ADE700BFD69B0D0013460A4601460248B6
:1083BC000068FFF77FBF00BFD0E403201D400D0015
:1083CC0059400D0081400D0085400D00000000005B
:1083DC0064656661756C7420004D5342004C5342C9
:1083EC00003C53504953657474696E67732064651F
:1083FC006661756C743E003C5350495365747469E6
:10840C006E67732025732575202573204D4F4445C9
:10841C0025753E00256900256C690058203D20001B
:10842C003B2059203D2000696E006F7574007077F9
:10843C006D006477006177004B4667775079674B26
:10844C005A645A4635495F6B6B4A74707A33727151
:10845C0072645735355A304A0073657475705375AC
:10846C0063636573733D25640043686F6F736520A8
:10847C0074686520646966666963756C747900411B
:10848C003A206561737920646966666963756C74FA
:10849C007900423A206D656469756D206469666681
:1084AC006963756C747900433A2068617264206466
:1084BC006966666963756C747900507265737320B4
:1084CC004120746F20706C61792077697468207416
:1084DC00686520616363656C65726F6D6574657248
:1084EC00005072657373204220746F20706C617938
:1084FC00207769746820746865204A6F6C7973748E
:10850C0069636B0025642C25642C2564006E6F2038
:10851C0073616D706C6500596F752057696E210021
:10852C00000000000000000055410D00C5400D008A
:10853C00C7400D00626C6E6B696E660076657200EA
:10854C00312E302E3000682D626561740034350098
:10855C00627566662D696E00313032340064657662
:10856C00005061727469636C65006275696C6400BB
:10857C004A756C20313420323032312031383A3562
:10858C00393A3030000000FFFFFFFFFFFFFFFFFF15
:10859C00FF800000000000000000FF8000000000D1
:1085AC0000000000FF800000000000000000FF80C1
:1085BC000000000000000000FF87E00001FFC00089
:1085CC0003F0FF842000000040000200FF84200024
:1085DC00000040000200FF84200000004000020068
:1085EC00FF842000000040000200FF843F07FFFFD3
:1085FC00FFF0020FFF8401000000000002007F84E6
:10860C0000000000000002007F8400000000000059
:10861C0002007F8400000000000002007F84000044
:10862C000000000002007F000000000000000010AD
:10863C00FF000000000000000010FF000000000020
:10864C0000000010FF000000000000000010FF0000
:10865C000100000000000010FF87FFFFC1FFFFFFBB
:10866C00FC10FF840000010040000010FF8400009B
:10867C00010040000010FF840000010040000010C9
:10868C00FF840000010040000010FF841F07FE085B
:10869C003FF003F0FF840000000800000000FF849E
:1086AC000000000800000000FF840000000800002B
:1086BC000000FF840000000800000000FFFFFFFF27
:1086CC00FFFFFFFFFFFFFFFFFFFFFFFFFFFFFFFFAE
:1086DC0080200000084000001F802000000840009F
:1086EC00001F80200000084000001F8020000008B0
:1086FC004000001F8020FFC00841FFFC1F840000C9
:10870C0001004000001F84000001004000001F8495
:10871C00000001004000001F840000010040000028
:10872C001F87FFFFFFF07E0003FF8020000000404A
:10873C0000001F80200000004000001F802000006F
:10874C00004000001F80200000004000001F80201F
:10875C000000004010001F04000000084010001F23
:10876C0004000000084000001F0400000008400046
:10877C00001F04000000084000001F040000000857
:10878C004000001F87FFFFC107FE007C1F84010013
:10879C0001000000001F84010001000000001F8484
:1087AC00010001000000001F840100010000000016
:1087BC001F8020003FFFFFFF83FF80200000000090
:1087CC0000000F80200000000000000F802000003F
:1087DC00000000000F80200000000000000FFFFFD1
:1087EC00FFFFFFFFFFFFFFFFFFFFFFFFFFFFFFFF8D
:1087FC00FFFFFFFFFF840000000800000000401096
:10880C00000003840000000800000000401000007D
:10881C0003840000000800000000401000000384E6
:10882C00000000080000000040100000038400FF5E
:10883C00FF003FFFFE0043F07C1FFF802000000084
:10884C0000004000400000100780200000000000E5
:10885C004000400000100780200000000000400095
:10886C004000001007802000000000004000400085
:10887C00001007FFE0003FFFC00041F07FFF801FAA
:10888C000780000000000008000040000010078076
:10889C0000000000000800004000001007800000ED
:1088AC0000000008000040000010078000000000DD
:1088BC0000080000400000100780010400002008A0
:1088CC0002004000001007002004010020000200FC
:1088DC004010000087002000010000000000401044
:1088EC000000870020000100000000004010000084
:1088FC0087002000010000000000401000008700ED
:10890C0020000100000002004010000087841F00BE
:10891C003F07FFF07E007FF07FFF0784000001001F
:10892C00000040000010001007840000010000004F
:10893C0040000010001007840000010000004000FF
:10894C00001000100784000001000000400000101F
:10895C0000100787FF07E1F83FF801FFFE00001F3A
:10896C0007800000200000080000020000000780C3
:10897C00000020000008000002000000078000003A
:10898C00200000080000020000000780000020000A
:10899C00000800000200000007FFFFFFFFFFFFFFC1
:1089AC00FFFFFFFFFFFFFF00000000003E5B4F5B7F
:1089BC003E3E6B4F6B3E1C3E7C3E1C183C7E3C1876
:1089CC001C577D571C1C5E7F5E1C00183C1800FF5A
:1089DC00E7C3E7FF0018241800FFE7DBE7FF304888
:1089EC003A060E2629792926407F050507407F0582
:1089FC00253F5A3CE73C5A7F3E1C1C08081C1C3E79
:108A0C007F14227F22145F5F005F5F06097F017F66
:108A1C00006689956A606060606094A2FFA2940809
:108A2C00047E040810207E201008082A1C08081C4C
:108A3C002A08081E101010100C1E0C1E0C30383E8C
:108A4C003830060E3E0E06000000000000005F00ED
:108A5C00000007000700147F147F14242A7F2A12B9
:108A6C00231308646236495620500008070300009F
:108A7C001C2241000041221C002A1C7F1C2A0808D1
:108A8C003E080800807030000808080808000060E4
:108A9C00600020100804023E5149453E00427F40D0
:108AAC000072494949462141494D331814127F102F
:108ABC0027454545393C4A49493141211109073679
:108ACC0049494936464949291E0000140000004016
:108ADC003400000008142241141414141400412210
:108AEC00140802015909063E415D594E7C121112BF
:108AFC007C7F494949363E414141227F4141413EBB
:108B0C007F494949417F090909013E414151737F20
:108B1C000808087F00417F41002040413F017F0849
:108B2C001422417F404040407F021C027F7F04089A
:108B3C00107F3E4141413E7F090909063E415121CA
:108B4C005E7F09192946264949493203017F0103F1
:108B5C003F4040403F1F2040201F3F4038403F6374
:108B6C001408146303047804036159494D43007FCE
:108B7C004141410204081020004141417F0402019F
:108B8C000204404040404000030708002054547841
:108B9C00407F284444383844444428384444287F8F
:108BAC00385454541800087E090218A4A49C787FE9
:108BBC000804047800447D40002040403D007F10B4
:108BCC0028440000417F40007C047804787C080431
:108BDC0004783844444438FC1824241818242418E5
:108BEC00FC7C08040408485454542404043F4424D2
:108BFC003C4040207C1C2040201C3C4030403C44ED
:108C0C00281028444C9090907C4464544C440008A8
:108C1C0036410000007700000041360800020102D6
:108C2C0004023C2623263C1EA1A161123A4040209E
:108C3C007A38545455592155557941225454784217
:108C4C00215554784020545579400C1E52721239DB
:108C5C005555555939545454593955545458000094
:108C6C00457C410002457D420001457C407D12114E
:108C7C00127DF0282528F07C545545002054547C56
:108C8C00547C0A097F4932494949323A4444443AAE
:108C9C00324A4848303A4141217A3A4240207800E1
:108CAC009DA0A07D3D4242423D3D4040403D3C2484
:108CBC00FF2424487E4943662B2FFC2F2BFF0929C8
:108CCC00F620C0887E090320545479410000447D6D
:108CDC00413048484A32384040227A007A0A0A72B7
:108CEC007D0D19317D2629292F2826292929263061
:108CFC00484D4020380808080808080808382F1084
:108D0C00C8ACBA2F102834FA00007B000008142AD3
:108D1C00142222142A14085500550055AA55AA5598
:108D2C00AAFF55FF55FF000000FF00101010FF00B8
:108D3C00141414FF001010FF00FF1010F010F014AA
:108D4C001414FC001414F700FF0000FF00FF1414AF
:108D5C00F404FC141417101F10101F101F141414FB
:108D6C001F00101010F0000000001F101010101F3A
:108D7C0010101010F010000000FF10101010101048
:108D8C00101010FF10000000FF140000FF00FF0087
:108D9C00001F10170000FC04F414141710171414FF
:108DAC00F404F40000FF00F714141414141414F752
:108DBC0000F7141414171410101F101F141414F4AB
:108DCC00141010F010F000001F101F0000001F14F2
:108DDC00000000FC140000F010F01010FF10FF1445
:108DEC001414FF141010101F00000000F010FFFFEF
:108DFC00FFFFFFF0F0F0F0F0FFFFFF0000000000BD
:108E0C00FFFF0F0F0F0F0F3844443844FC4A4A4AF7
:108E1C00347E02020606027E027E026355494163DD
:108E2C003844443C04407E201E2006027E020299F7
:108E3C00A5E7A5991C2A492A1C4C7201724C304A90
:108E4C004D4D303048784830BC625A463D3E494919
:108E5C0049007E0101017E2A2A2A2A2A44445F44C1
:108E6C004440514A444040444A51400000FF0103F1
:108E7C00E080FF000008086B6B08361236243606BB
:108E8C000F090F06000018180000001010003040E9
:108E9C00FF0101001F01011E00191D1712003C3CAF
:108EAC003C3C00000000000000000000000000003E
:108EBC000000000000000000BD570D00316F0D00D8
:108ECC00A1400D00C5510D00C7510D00F9510D0009
:108EDC00D5510D00E7510D0009510D00C5510D0084
:108EEC00F1530D006B530D0011520D004F520D003C
:108EFC0089520D00CF520D006D530D00EB520D0039
:108F0C000000000000000000CD580D00ED580D00D1
:108F1C00BD570D00316F0D00FD5A0D00C5510D00F0
:108F2C00C7510D00F9510D00D5510D00E7510D0041
:108F3C0009510D00C5510D00F1530D00B75C0D002A
:108F4C004B620D00FD610D0089520D00CF520D00DA
:108F5C006D530D00EB520D0000000000000180006D
:108F6C000000000000000000038000000000000072
:108F7C0000000007C000000000000000000007C057
:108F8C000000000000000000000FC0000000000006
:108F9C00000000001FE00000000000000000001FA7
:108FAC00E00000000000000000003FE000000000B6
:108FBC0000000000003FF000000000000000000076
:108FCC007FF0000000000000001FF87FF0000000A0
:108FDC00000000003FFE7FF0000000000000003F9A
:108FEC00FF7FF0000000000000001FFFFBE000000E
:108FFC0000000000000FFFF9FFC00000000000009F
:10900C000FFFF9FFF800000000000007FFF1FFFF61
:10901C0000000000000003FC73FFFF800000000054
:10902C000001FE3FFFFF80000000000000FF1E0F4C
:10903C00FF000000000000007FFE1FFC000000008D
:10904C000000003FFFFFF8000000000000000FDFF1
:10905C00FFE0000000000000001F19FFC00000002E
:10906C00000000003F3CFF00000000000000007EFC
:10907C007CF800000000000000007FFE7C00000077
:10908C000000000000FFFFFC0000000000000000DA
:10909C00FFFFFE0000000000000000FFFFFE0000CC
:1090AC00000000000001FFEFFE00000000000000C7
:1090BC0001FFCFFE0000000000000003FF07FE00D0
:1090CC0000000000000003FC07FE00000000000090
:1090DC000003F003FE00000000000000018000FE11
:1090EC00000000000000000000007E0000000000F6
:1090FC0000000000003E0000000000000000000026
:10910C000C000000000000078000FC000003C00001
:10911C000000078001FC000003C000000007800174
:10912C00FC000003C0000000078001E00000001EEE
:10913C00000000078001E00000001E007FE3F79FA5
:10914C00F9FDE7787BDFC0FFF7FFBFFDFDFF787B04
:10915C00DFC0FFF7FFBFFDFDFF787BDFC0F0F787B7
:10916C00BC3DE1FF787BDE00F0F787BC3DE1F07899
:10917C007BDE0000F787803DE1E0787BDE007FF747
:10918C00879FFDE1E0787BDE00FFF787BFFDE1E024
:10919C00787BDE00F0F787BC3DE1E0787BDE00F009
:1091AC00F787BC3DE1E0787BDE00F0F787BC3DE162
:1091BC00E0787BDE00FFF7FFBFFDE1E07FFBDFC067
:1091CC00FFF7FFBFFDE1E07FFBDFC07CF3F39F3DCA
:1091DC00E1E03E7BCFC0000000000000000000007A
:1091EC0000FFFFFFFFFFFFFFFFFFFFC0FFFFFFFFC1
:1091FC00FD68DB111A31C0FFFFFFFFFD2B5AFB6A24
:10920C00EFC0FFFFFFFFFD4B5B3B1A33C0FFFFFFBF
:10921C00FFFD6B5BDB6AFDC000006000000000001E
:10922C00000000000000000000E000000000000052
:10923C000000000000000001E00000000000000041
:10924C0000000000000001F0000000000000000021
:10925C00000000000003F00000000000000000000F
:10926C000000000007F000000000000000000000FB
:10927C0000000007F80000000000000000000000E3
:10928C0000000FF800000003C0007E000001E000A9
:10929C007F0FF800000003C000FE000001E000FF9B
:1092AC00EFF800000003C000FE000001E000FFFF2B
:1092BC00F800000003C000F00000000F007FFE7FEC
:1092CC00C0000003C000F00000000F003FFE7FF85C
:1092DC003FF1FBCFFCFEF3BC3DEFE01FFE7FFF7FB9
:1092EC00FBFFDFFEFEFFBC3DEFE01FC6FFFF7FFB79
:1092FC00FFDFFEFEFFBC3DEFE00FE3C7FE787BC354
:10930C00DE1EF0FFBC3DEF0007FF87FC787BC3DE61
:10931C001EF0F83C3DEF0001FFFFF0007BC3C01EC8
:10932C00F0F03C3DEF0001F37FE03FFBC3CFFEF0DC
:10933C00F03C3DEF0003E33F807FFBC3DFFEF0F02A
:10934C003C3DEF0007E73C00787BC3DE1EF0F03CB1
:10935C003DEF0007FFBE00787BC3DE1EF0F03C3D06
:10936C00EF0007FFFE00787BC3DE1EF0F03C3DEF04
:10937C00000FFFFE007FFBFFDFFEF0F03FFDEFE094
:10938C000FFFFF007FFBFFDFFEF0F03FFDEFE00F74
:10939C00F9FF003E79F9CF9EF0F01F3DE7E01FF199
:1093AC00FF0000000000000000000000001F80FF14
:1093BC00007FFFFFFFFFFFFFFFFFFFE01C007F00B0
:1093CC007FFFFFFFFEB46D888D18E000001F007F4B
:1093DC00FFFFFFFE95AD7DB577E000000F007FFF2E
:1093EC00FFFFFEA5AD9D8D19E0000006007FFFFF7D
:1093FC00FFFEB5ADEDB57EE0000000000000000002
:10940C00D15A0D00E95A0D00BD570D00316F0D00FA
:10941C00FD5A0D00C5510D00C7510D00F9510D003D
:10942C00D5510D00E7510D0009510D00C5510D002E
:10943C00F1530D00B75C0D004B620D00FD610D008A
:10944C0089520D00CF520D006D530D00EB520D00E3
:10945C000080C0E0F0F8FCFE000103070F1F3F7F07
:10946C00AED580A8D300408D2000A1C8DB40A4A6B7
:10947C002EAFDA02818FDA1281DA02812200FF210B
:10948C0000646576696365206E6F7420666F756E17
:10949C00640000000000000000000000000000005C
:1094AC000000000051650D00A1400D00A1400D0011
:1094BC00000000000000000041640D0043640D003A
:1094CC0073650D0081640D00C3640D0051640D00C3
:1094DC006B640D00B5660D00B5660D00B5660D002C
:1094EC00B5660D00B5660D00B5660D00B5660D00D0
:1094FC00B5660D00B5660D00B5660D00B5660D00C0
:10950C00B5660D00B5660D00B5660D00B5660D00AF
:10951C00B5660D00B5660D00B5660D00B5660D009F
:10952C00B5660D00B5660D00B5660D00B5660D008F
:10953C00B5660D00B5660D00B5660D00B5660D007F
:10954C00B5660D00B5660D00B5660D00B5660D006F
:10955C00B5660D00B5660D00B5660D00B5660D005F
:10956C00B5660D00B5660D00B5660D00B5660D004F
:10957C00B5660D00B5660D00B5660D00B5660D003F
:10958C00B5660D00B5660D00B5660D00B5660D002F
:10959C00B5660D00B5660D00B5660D00B5660D001F
:1095AC00B5660D00B5660D00B5660D00B5660D000F
:1095BC00B5660D00B5660D00B5660D00B5660D00FF
:1095CC00B5660D00B5660D00B5660D00B5660D00EF
:1095DC00B5660D00B5660D00B5660D00B5660D00DF
:1095EC00B5660D00B5660D00B5660D00B5660D00CF
:1095FC00B5660D00B5660D00B5660D00B5660D00BF
:10960C00B5660D00B5660D00B5660D00B5660D00AE
:10961C00B5660D00B5660D00B5660D00B5660D009E
:10962C00B5660D00B5660D00B5660D00B5660D008E
:10963C00B5660D00B5660D00B5660D00B5660D007E
:10964C00B5660D00B5660D00B5660D00B5660D006E
:10965C00B5660D00B5660D00B5660D00B5660D005E
:10966C00B5660D00B5660D00B5660D00B5660D004E
:10967C00B5660D00B5660D00B5660D00B5660D003E
:10968C00B5660D00B5660D00B5660D00B5660D002E
:10969C00B5660D00B5660D00B5660D00B5660D001E
:1096AC00B5660D00B5660D00B5660D00B5660D000E
:1096BC00B5660D00B5660D00B5660D00B5660D00FE
:1096CC00B5660D00B5660D00B5660D00B5660D00EE
:1096DC00B5660D00B7660D0091420D00B7660D0022
:1096EC00B7660D00B7660D00B7660D00B7660D00C6
:1096FC00B7660D00B7660D00B7660D00B7660D00B6
:10970C00B7660D00B7660D00B7660D00B7660D00A5
:10971C00B7660D00B7660D00B7660D00B7660D0095
:10972C00B7660D00B7660D00B7660D00B7660D0085
:10973C00B7660D00B7660D00B7660D00B7660D0075
:10974C00B7660D00B7660D00B7660D00B7660D0065
:10975C00B7660D00B7660D00B7660D00B7660D0055
:10976C00B7660D00B7660D00B7660D00B7660D0045
:10977C00B7660D00B7660D00B7660D00B7660D0035
:10978C00B7660D00B7660D00B7660D00B7660D0025
:10979C00B7660D00B7660D00B7660D00B7660D0015
:1097AC00B7660D00B7660D00B7660D00B7660D0005
:1097BC00B7660D00B7660D00B7660D00B7660D00F5
:1097CC00B7660D00B7660D00B7660D00B7660D00E5
:1097DC00B7660D00B7660D00B7660D00B7660D00D5
:1097EC00B7660D00B7660D00B7660D00B7660D00C5
:1097FC00B7660D00B7660D00B7660D00B7660D00B5
:10980C00B7660D00B7660D00B7660D00B7660D00A4
:10981C00B7660D00B7660D00B7660D00B7660D0094
:10982C00B7660D00B7660D00B7660D00B7660D0084
:10983C00B7660D00B7660D00B7660D00B7660D0074
:10984C00B7660D00B7660D00B7660D00B7660D0064
:10985C00B7660D00B7660D00B7660D00B7660D0054
:10986C00B7660D00B7660D00B7660D00B7660D0044
:10987C00B7660D00B7660D00B7660D00B7660D0034
:10988C00B7660D00B7660D00B7660D00B7660D0024
:10989C00B7660D00B7660D00B7660D00B7660D0014
:1098AC00B7660D00B7660D00B7660D00B7660D0004
:1098BC00B7660D00B7660D00B7660D00B7660D00F4
:1098CC00B7660D00B7660D00B7660D00B7660D00E4
:1098DC00B7660D000000000000000000CB6C0D000E
:1098EC00C16C0D00B76C0D00AD6C0D00A16C0D00C2
:1098FC00956C0D00817C0D00897C0D00896C0D0030
:10990C00816C0D00776C0D006D6C0D00B97C0D0039
:10991C00000810182028303800000000000000005B
:10992C006170700025592D256D2D25645425483AFC
:10993C00254D3A2553257A0061736374696D650072
:10994C00000000000000000039720D0029720D00AB
:10995C002B720D0000000000000000005D730D0074
:10996C00C5730D009B730D00316F0D008D730D00D1
:10997C005F730D006F730D00BF730D007F730D00CF
:10998C0059730D00000000000000000069740D0008
:10999C00D5740D00AD740D00316F0D007D740D008C
:1099AC0099740D008B740D00A7740D006B740D0071
:1099BC006F740D00000000000000000065750D00C4
:1099CC00AF750D0087750D0067750D008F750D0057
:1099DC0097750D009F750D00A7750D00776972695D
:1099EC006E670072656376206572726F72203D201F
:1099FC0025640000000000000000000093760D00BC
:109A0C00B5760D00CF7A0D00C3760D0095760D005E
:109A1C00000000000000000041770D0075770D007C
:109A2C0011760D002B760D0065790D00D7770D00A2
:109A3C00A9770D0055760D006F780D00D57A0D00C5
:109A4C000B780D00197A0D0057760D0089760D00F4
:109A5C003D760D00C7760D0089770D0000000000E3
:109A6C0000000000237C0D00197C0D000F7C0D0004
:109A7C00D17B0D00A5700D00037C0D00817C0D00C9
:109A8C00897C0D00F77B0D00EF7B0D00E57B0D0055
:109A9C00DB7B0D00B97C0D00000000000000000015
:109AAC00417C0D004B7C0D00557C0D005F7C0D0046
:109ABC00697C0D00757C0D00817C0D00897C0D008E
:109ACC00917C0D009D7C0D00A57C0D00AF7C0D00E4
